:020000040800F2
:1000000018360020F9010008D5AE00086D820008FE
:1000100065AE00082D0E0008A1E3000800000000F6
:10002000000000000000000000000000DDBF00082C
:100030009523000800000000FDB4000841C200083C
:10004000130200081302000813020008130200083C
:10005000130200081302000813020008130200082C
:10006000130200081302000813020008130200081C
:10007000130200081302000813020008130200080C
:100080001302000813020008CD090008130200083B
:1000900013020008392600081302000813020008A2
:1000A0000DC4000821C40008130200081302000850
:1000B00013020008130200081302000813020008CC
:1000C00013020008130200081302000813020008BC
:1000D000130200081302000813020008AFE2000830
:1000E000130200081302000813020008130200089C
:1000F0001302000813020008C5C800081302000814
:10010000130200081302000813020008130200087B
:10011000130200081302000813020008130200086B
:10012000130200081302000813020008130200085B
:10013000130200081302000813020008130200084B
:100140001302000813020008130200080000000058
:10015000000000000000000000000000000000009F
:100160000000000000000000000000001302000872
:10017000130200081302000813020008130200080B
:1001800013020008130200081302000813020008FB
:100190001302000800000000130200081302000808
:1001A00013020008130200081302000813020008DB
:1001B00013020008130200081302000813020008CB
:1001C00013020008130200081302000813020008BB
:1001D0001302000813020008000000082420010098
:1001E000DFF810D000F0ACFB0048004701E7000842
:1001F000AFF30080183600200648804706480047C5
:10020000FEE7FEE7FEE7FEE7FEE7FEE7FEE7FEE7C6
:10021000FEE7FEE7FDC30008E10100082DE9F05FFD
:100220000546002092469B46884606468146402465
:100230001BE0284641464746224600F0DCFA53467A
:100240005A46C01A914110D311461846224600F072
:10025000C3FA2D1A67EB01084F4622460120002100
:1002600000F0BAFA17EB00094E41201EA4F1010478
:10027000DFDC484631462A464346BDE8F09FD2B20D
:1002800001E000F8012B491EFBD270470022F6E77F
:1002900010B513460A4604461946FFF7F0FF2046FC
:1002A00010BDF0B480EA0102D40F4200B2EB410F5E
:1002B00002D20246084611464A0042D0C30DDDB2C2
:1002C000C1F3C752AD1A202D35DAC1F3160141F43E
:1002D000000204B15242C5F1200602FA06F12A4199
:1002E0001044B3EBD05F23D0C4B1012DA0EBC350B9
:1002F00009DCF0BC4FF0004202EAC352DBB200F569
:10030000000000F091BA400000F1807000EBC35093
:10031000A0F1807040EAD170490009E0490841EA43
:10032000C071A0EBC35000F50000400800EBC350C3
:10033000F0BC00F070BA6142012202EB4101001BE7
:10034000F6E7F0BC704781F00041AAE780F000407A
:10035000A7E780EA010210B502F00043400022D076
:100360004A001FD0010E01EB1261C0F35600C2F328
:10037000560240F4000042F40002A0FB02200004F8
:100380007F39140400D0401C50EA124001D44000D0
:10039000491EC2B20C0604EBD010401C4008802A53
:1003A00002D003E0002010BD20F00100002900DA97
:1003B0000020184310BD30B480EA010202F000456D
:1003C00030F0004221F0004013D090B1C30DD40DA5
:1003D000C2F31601C0F31600E41A41F4000140F420
:1003E00000027D34914201D3641C00E04900002CDE
:1003F00002DA30BC002070474FF400000023914225
:1004000001D3891A034340084FEA4101F7D151B1A2
:10041000914202D14FF0004105E002D24FF00101BC
:1004200001E06FF0010103EBC450284430BC00F040
:10043000F2B92DE9FE4F81EA030404F0004421F0F3
:10044000004100944FF0000B23F0004350EA0104F8
:100450005ED052EA03045BD0C3F30A54C1F30A55D9
:100460002C44A4F2F3340194A0FB0254C1F3130111
:1004700041F48011C3F3130343F4801301FB0244DE
:1004800000FB034E840A970A44EA815447EA8357E3
:10049000A4FB076802958D0A05FB07854FEA932C9C
:1004A00004FB0C542705029D4FEA065847EA16370D
:1004B000B5EB08056EEB070C870E920E47EA811725
:1004C00042EA8312A7FB0201B6EB0B0164EB0004C6
:1004D0002B0D43EA0C335E1844EB1C50DA465146B0
:1004E000E7FB0201C5F313044FEA0B3343EA14534D
:1004F0004FEA0432019C43EA0603A4F10C0402947F
:10050000009CCDE900B400F0CCF903B0BDE8F08F59
:1005100000200146F9E72DE9F04D81EA030404F0DB
:10052000004B21F0004514464FF0000A23F0004133
:1005300050EA050220D054EA01021DD0C5F30A5743
:100540000246C5F31303C1F31300C1F30A5640F486
:10055000801543F48013A7EB0608101BD64608F25B
:10056000FD3873EB050002D308F1010801E0921891
:100570005B41B8F1000F03DA00200146BDE8F08DC1
:1005800000204FF48011064684460EE0171B73EBE3
:10059000050705D3121B63EB050306434CEA010C68
:1005A00049084FEA300092185B4150EA0107EDD14B
:1005B00052EA030012D082EA040083EA05010843EC
:1005C00005D0101BAB4106D20122002306E0002219
:1005D0004FF0004302E06FF0010253101AEB0600E7
:1005E0004CEB085110EB0A0041EB0B01BDE8F04D5C
:1005F00000F048B9C10F80EAE0700844CA079623AA
:10060000002100F011B996230022114600F00CB928
:100610000EB5C10F80EAE0700844CA07002140F21D
:1006200033438DE80E000A460B4600F03AF903B05A
:1006300000BD0EB540F2334102910021CDE9001119
:100640000A460B4600F02DF903B000BD00F0004251
:1006500020F00040C10DC0F3160040F400007F29D7
:1006600001DA00207047962903DCC1F19601C840E9
:1006700001E096398840002AF4D04042704720F0CB
:100680000040C10DC0F3160040F400007F2901DADC
:1006900000207047962903DCC1F19601C8407047DD
:1006A00096398840704770B5C1F30A5201F0004591
:1006B0000024C1F3130140F2FF3341F480119A4248
:1006C00001DA002070BD40F233439A42A2F2334275
:1006D00003DC524200F08FF800E090402C43F1D050
:1006E000404270BDC1F30A5210B5C1F3130140F28C
:1006F000FF3341F480119A4201DA002010BD40F22C
:1007000033439A42A2F2334203DC524200F073F8C0
:1007100010BD904010BD000030B5041E71F1000402
:1007200004DB4FF00044404264EB0101141E73F1FE
:10073000000405DB1C464FF00043524263EB040308
:100740008B4208BF824230BD30B5041E71F10004F7
:1007500004DB4FF00044404264EB0101141E73F1CE
:10076000000405DB1C464FF00043524263EB0403D8
:10077000994208BF904230BD01F0004330B421F0EF
:10078000004150EA010206D00A0DA2F56072C1F3E1
:100790001301002A02DC30BC00207047440F44EAF9
:1007A000C104C100E01830BC00EBC25000F033B807
:1007B000002801DBC0F10040002901DBC1F100414C
:1007C00081427047002801DBC0F10040002901DBB5
:1007D000C1F1004188427047202A04DB203A00FA28
:1007E00002F1002070479140C2F1200320FA03F388
:1007F000194390407047202A04DB203A21FA02F086
:100800000021704721FA02F3D040C2F1200291404A
:100810000843194670470029A8BF7047401C49008B
:1008200008BF20F00100704710B4B0FA80FC00FA55
:100830000CF050EA010404BF10BC704749B1CCF180
:10084000200421FA04F411FA0CF118BF012121430C
:100850000843A3EB0C01CB1D4FEA00614FEA1020C7
:1008600042BF002010BC704700EBC3501044002969
:10087000A4BF10BC7047401C490008BF20F0010015
:1008800010BC704710B5141E73F1000408DA401C48
:1008900041F1000192185B411A4301D120F001009F
:1008A00010BD2DE9F04D92469B4611B1B1FA81F28F
:1008B00002E0B0FA80F220329046FFF78DFF044646
:1008C0000F4640EA0A0041EA0B0153465A460843E4
:1008D00013D0114653EA010019D0C8F14002504626
:1008E000FFF789FF05460E46504659464246FFF738
:1008F00073FF084305D0012004E020463946BDE8D7
:10090000F08D0020054346EAE0762C4337430A98F1
:100910006305E40AA0EB08000022FD0A44EA4754FC
:100920000A3002D500200146E9E7010510196941A6
:10093000DDE9084500196941BDE8F04DA2E7000076
:10094000064C074D06E0E06840F0010394E807001C
:1009500098471034AC42F6D3FFF746FC501B010811
:10096000701B010870B58C1810F8015B15F00703B7
:1009700001D110F8013B2A1106D110F8012B03E038
:1009800010F8016B01F8016B5B1EF9D12B0705D440
:100990000023521E0DD401F8013BFAE710F8013B89
:1009A000CB1A921C03E013F8015B01F8015B521EA5
:1009B000F9D5A142D8D3002070BD000080FB010111
:1009C0004FEA106000EB01207047000010B500BF37
:1009D0004FF0A0400068C0F3801070B100BF40200D
:1009E0004FF0A041086000BF084609F0C7F803486F
:1009F00009F0C4F8024809F0C1F810BD0001005028
:100A00000004005070B50546AC6AE06D00F050007F
:100A100098BBE06D40F40070E0652068006800F06D
:100A20000800A8B1206809F09FF810B32068C068DA
:100A300000F40050E8B9E06D20F48070E065E06DEE
:100A400000F48050A8B9E06D40F00100E06510E0CE
:100A50002068C06800F0020058B9E06D20F4807092
:100A6000E065E06D00F4805018B9E06D40F00100E1
:100A7000E065204603F07AFD0CE0FFE7E06D00F052
:100A8000100018B1204603F073FD03E0606D416B68
:100A90002846884770BD70B50546AC6AE06D40F0E9
:100AA0004000E065206E40F004002066204603F020
:100AB0005FFD70BD70B50446A56A284603F057FD7A
:100AC00070BD000070B50446206809F02FF8064696
:100AD000206809F030F870B36EBB2068806800F0C1
:100AE0000D0001280AD120688168174A1140891C2D
:100AF000816000BF03202168086009E0E06D40F0DC
:100B00001000E065206E40F001002066012070BDFD
:100B100004F032FF05460FE004F02EFF401B0228D0
:100B20000AD9E06D40F01000E065206E40F0010051
:100B300020660120EBE705E02068806800F00100F6
:100B40000028E9D10020E2E7C0FFFF7F70B504462E
:100B5000206808F0F0FF88BB2068806818490840CA
:100B600048B1E06D40F01000E065206E40F00100FB
:100B70002066012070BD206808F09AFF04F0FCFE9A
:100B8000054615E0206808F0D6FF10B9206808F087
:100B90008FFF04F0F1FE401B022809D9E06D40F000
:100BA0001000E065206E40F0010020660120E1E7C2
:100BB0002068006800F001000028E3D00020D9E799
:100BC0003F000080094A02EB4002527822B9074AEE
:100BD00002EB4002517008E0044A02EB40025278F6
:100BE0001AB1024A02EB400251707047C41500204E
:100BF00010B50446B4F91200401C05286FD2DFE896
:100C000000F0810315386F0000206060FA20208119
:100C1000A0816081A08A402804D101206082002048
:100C2000A08202E0A08A401CA08273E020880128F4
:100C30001ED12B2009F0ACFB3748808A40F480712C
:100C4000354881823548B0F8DA0160806188606893
:100C500008446060A08A401CA082A08A402807D176
:100C60000020A0826068C0F38F10A0810220608203
:100C700050E02088012810D12848B0F8DA016080BF
:100C800060886189884201DA608860816088218992
:100C9000884223DD6088208120E0A08A401CA08259
:100CA000A08AC8281ADDA089C82814DDA089B0F55B
:100CB000967F10DA2089A189401A642807DBA08971
:100CC0006189401A642802DB0320608206E04FF04D
:100CD000FF30608202E04FF0FF3060821AE018E0DF
:100CE00061895C200BF0DAF921895D200BF0D6F9DF
:100CF000A1895E200BF0D2F9042060822B2009F03C
:100D000027FB07E02B2009F023FB2C2009F040FBF8
:100D100000E000BF00BF10BDCC2100204416002021
:100D200000B58DB072B634216846FFF7AFFA34488B
:100D3000006A00F4E060B0F5806F12D004F000FDAE
:100D400004F0E6FC0420009001200590800206904B
:100D5000684604F057FC04F0BDFC04F0C9FC04F044
:100D6000A9FC09F09DFD09F027FD09F061FB09F0E0
:100D700025FC09F067FE09F08FFE09F03FFF09F03E
:100D80009DFF09F0DDFF09F0B5FC0AF01BF81D48D6
:100D900004F0BCFB7F211C4802F026FB7F211B488E
:100DA00002F022FB7F211A4802F01EFB00211948A5
:100DB00006F060FB0421174806F05CFB0021164892
:100DC00006F058FB0421144806F054FB1348006851
:100DD000C06840F0010011490968C8600622104946
:100DE000094803F0A3FE04220E49084803F09EFEC2
:100DF00002220D49064803F099FE0DB000BD000027
:100E0000002002403C080020480B0020140C002069
:100E1000E00C00203809002084090020A0080020F0
:100E2000200B0020380B00201400002000BFFEE73C
:100E300010B590B00446002001900290152004F0F7
:100E400013FE3A4804F0B6F803285BD1374800682F
:100E5000806900F00100002854D10CA9204600F060
:100E600067F805285CD10C980390002005909DF848
:100E70003400012802D18007049001E00020049092
:100E80009DF8350006900698000406900020079013
:100E9000089009900A900B909DF836008DF8040098
:100EA0000CA8C0798DF805000CA8007A8DF8060012
:100EB0000CA8407A8DF807000CA8807A8DF80800FD
:100EC0000CA8C07A8DF809000CA8007B8DF80A00E8
:100ED0000CA8407B8DF80B0001AA03A9134803F06E
:100EE000A5FF01281CD111480068806900F00100AD
:100EF00038B10E480068806920F001000B4909688C
:100F000088610DE009480068806900F0010038B18F
:100F100006480068806920F001000449096888617A
:100F2000152004F0C3FD012010B010BD3C080020C6
:100F300030B50246D2E90030984211D002F10800E3
:100F4000536800EB031539CD81E839005068401C27
:100F500050605068402801D300205060052030BD0B
:100F60000320FCE7F0B502460B461068411C4029FF
:100F700000D30021506888420AD002F108001468AA
:100F800000EB041093E8F000F0C011600420F0BD05
:100F90000220FCE7014601220879002874D1086884
:100FA00020B988793A4BA3F868006EE00868B0F57C
:100FB000067F14D18879364B1870C8795870087A32
:100FC0009870487AD870887A1871C87A5871087BF6
:100FD0009871487BD871002083F8200055E008689C
:100FE000B0F5467F16D18879294B1872CB792848FD
:100FF00043720B7A83724B7AC3728B7A0373CB7A08
:1010000043730B7B83734B7BC3730020204B83F8AC
:1010100021003AE00868B0F5836F16D188791C4B3F
:101020001874CB791A4843740B7A83744B7AC3745F
:101030008B7A0375CB7A43750B7B83754B7BC375BA
:101040000020134B83F822001FE040F22C63086855
:10105000984217D188790E4B1876CB790C48437695
:101060000B7A83764B7AC3768B7A0377CB7A437786
:101070000B7B83774B7BC3770020054B83F82300E2
:1010800003E001E0002200E0002210B270470000FF
:10109000AC2500202DE9F05F0020FE49A1F80E01EB
:1010A0005020A1F8FA0040F2E730A1F80401FA4814
:1010B000C08B8882F848C0894FF6FF7101EA800032
:1010C000F4490883F448007900F0010048830020C7
:1010D00088832120C883422008846320488400201C
:1010E00088841E20C8843C2008855A204885EA4808
:1010F000B0F8140100EBC00101EB00104FF6FF71D6
:1011000001EA8000E349A1F86000E348B0F8580024
:1011100000EBC00101EB00104FF6FF7101EAC000C7
:10112000DC49A1F85400DC48B0F85A0000EB80001C
:101130004FF6FF7101EA4000D649A1F85600D648A3
:10114000B0F85C00A1F85A00D348B0F85E00A1F8EE
:101150005C00D148B0F8620000EB4001C1EBC01068
:101160004FF6FF7101EAC000CA49A1F88800CA48D9
:10117000B0F86400A1F84E00C748B0F870000882CB
:10118000C548B0F876004882C3480079C0F34000F3
:10119000A1F88000C048408988800120C880BE48EE
:1011A000B0F88E00898A4843642190FBF1F0B94978
:1011B000A1F87000B848B0F89000A1F84800B6480F
:1011C000B0F89200A1F84A00B348B0F89400A1F832
:1011D0004C000846B0F84C00B1F84A10884205DAD5
:1011E000AC48B0F84A00AB49A1F84C00AA48B0F8A6
:1011F000AC00A8490886A848B0F8AE008886A64882
:10120000B0F8B0004886A448B0F8AA00C8854CF2EF
:1012100050308860A048808C4CF25031484347F6EB
:10122000FF7190FBF1F09B49C8609B48B0F8180132
:10123000A1F88A009848B0F81601A1F88C009648E9
:101240000088A1F88E009448B0F85201A1F89000EF
:10125000002081F87A00904890F81001C0F3400017
:101260008E49A1F8B2008C4890F81001C0F38000BC
:101270008849A1F87600884890F81001C0F3401022
:10128000A1F87C00844890F81001C0F38010A1F808
:101290008200814890F81001C0F3C01081F88400EA
:1012A0000846008B3C2190FBF1F000B27B49A1F88D
:1012B0000E017848808848867648C088C8860846E7
:1012C000408F20F440507349097940EA0130734956
:1012D00048870846408F20F440406E49897940EAAB
:1012E00081306E4948876C48B0F8B200000340F680
:1012F000E44190FBF1F000B26849A1F810016548A3
:10130000808A6449098B48433C2190FBF1F0634992
:1013100088650846806D5F49098A90FBF1F05F4956
:1013200008670846006F012801DA0120086759485C
:10133000008A5B4991FBF0F05849C8640846C06CCC
:10134000012801DA0120C8645248408A544991FBBF
:10135000F0F0524908650846006D012801DA0120C5
:10136000086500204B49A1F87400A1F87200002123
:101370004848A0F8D410A0F8D6100121A0F8D21047
:101380000021A0F8D810A0F8DA10008B4149B1F87C
:101390008C1048433F49B1F88A1090FBF1F03D4969
:1013A000C8630846C06BC8660846C06B4FF4B4718A
:1013B00090FBF1F000EB80004FF6FF7101EA400076
:1013C0003449A1F88600C86BC11700EB91718910F0
:1013D00009B2324AA2F814112E49C86B00EBD07141
:1013E00049102C4A91632C48B0F920012B49B1F9DE
:1013F0001411494288420EDD2748B0F920012749DF
:10140000B1F91411884206DA2348B0F820012349C3
:10141000A1F8240103E000202049A1F824011E487E
:10142000B0F882001B49A1F850001B48B0F8F40046
:10143000A1F852000846C06B1749B1F92211484380
:101440004FF4B47190FBF1F01449C1F8280112482F
:10145000B0F92201002805DD0F48B0F92201C1F8DA
:101460002C0103E000200D49C1F82C0140F6C550C5
:10147000084908640846C0680749498A48434FF448
:101480007A71B0FBF1F00321B0FBF1F0014948643F
:10149000014807E01C23002044160020CC21002036
:1014A00088C93500B0F81A0100B25249A1F83201DA
:1014B0005148B0F81C0100B2A1F834014E48B0F810
:1014C0001E0100B2A1F836014C498868FFF7A0F868
:1014D00082464FF066324A4BFEF7ABFF8046002251
:1014E000484BFEF7A6FF06460022474BFFF713F8CE
:1014F0000446FFF7D8F800B23E49A1F8920008462A
:10150000B0F89200404200B2A1F894003B49C8688C
:10151000FFF77EF806464FF06632394BFEF789FF3B
:1015200004460022374BFEF784FF80460022364BEC
:10153000FEF7F1FF8246FFF7B6F800B22D49A1F899
:101540008E000846B0F98E00B1F99210884205DD90
:101550002848B0F892002749A1F88E002548B0F835
:101560008E00404200B22349A1F890002748C1F8FC
:1015700038012748C1F83C011F4890F80C011F4969
:1015800091F89E1160F300011C4880F89E111A48E2
:1015900090F80C014008194991F89E1160F341013F
:1015A000164880F89E11144890F80C0180081349E1
:1015B00091F89E1160F38201104880F89E110E4848
:1015C00090F80C01C0080D4991F89E1160F3C30119
:1015D0000A4880F89E11084890F80C010009074954
:1015E00091F89E1160F30411044880F89E11BDE843
:1015F000F09F0000CC210020441600201C23002076
:101600006666EE3F0000B04018FB144150CF540016
:10161000BFC22C0070B505460E46B5B90020624920
:1016200008606249086062488088022803D06048E8
:101630008088032806D100205E4908605E49086062
:101640005E49086001F082FD9BE0012D46D15848BB
:101650008088022803D056488088032806D10020BD
:101660005449086054490860544908602EBB5448E6
:10167000406A4F49098B48433C2190FBF1F45048A4
:10168000806DA04202DA4E48846D07E04C48806DC0
:101690004042A04202DD4A48806D44424848846688
:1016A00043488088022803D041488088032868D1B5
:1016B0004348806E4249486763E0012E61D101F0E2
:1016C00045FD3B488088022803D03948808803289C
:1016D00057D13B48806E3A49486752E0022D25D1E8
:1016E0001EBB3748846A3248C068A04202D23048E4
:1016F000C46807E02E48C0684042A04202D92C4886
:10170000C068444220032F4990FBF1F4B4F5966F72
:1017100002DD4FF4966403E014F5966F00DA2A4C6C
:1017200020B22749A1F86C002BE02AE0032D28D134
:1017300036BB2348C46A642C01DD642404E014F140
:10174000640F01DA6FF0630440F6C5506043642112
:1017500090FBF1F440F6C550844203DD1849A1F82E
:1017600048000EE01948844205DA4FF23B20144944
:10177000A1F8480005E020B21149A1F8480000E0B6
:1017800000BF0B488580C6800D48408F20F4405034
:1017900040EA05300A4948870846408F20F4404017
:1017A00040EA8630488770BDC4060020C806002085
:1017B0001C230020D4060020D0060020CC060020E8
:1017C000CC210020C63E050050FBFFFF3BF2FFFF8F
:1017D0002DE9F041002401F07FFAFD48008F012837
:1017E00015D1FB48007C00F0010080B1F948B0F948
:1017F0000000002806DDF7480088401E00B2F549C9
:10180000088008E0F448D0F8D010884703E04FF48F
:101810007A50F04908804FF40051F04804F094F8F1
:10182000EB49A1F8AE000846B0F8AC0000281ED184
:10183000EB48008800281AD0EA48B0F87C0001285C
:1018400073D10846B0F9AE00B1F9B010884231D07A
:10185000DF48B0F8AE0001282CD1E248B0F8820091
:10186000012805D1DA48006ED949C1F81801BCE059
:10187000D748006ED649C1F81C010846D0F81C01B3
:10188000D1F81811401AD249C1F82001D1F820012D
:1018900000EBD071CE4AB2F9242102EB6101CC4AAF
:1018A0001166D1650320CE49088001201146A1F8B8
:1018B000AC009AE0C648B0F9AE00C549B1F9B01025
:1018C0008842D4D0C248B0F8AE00002825D1C5481F
:1018D000B0F88200012821D1BD48006EBC49C1F892
:1018E0001C010846D0F81C01D1F81811401AB8495B
:1018F000C1F82001D1F8200100EBD071B44AB2F94F
:10190000242102EB6101B24A1166D1650320B4497A
:10191000088001201146A1F8AC0066E0AC48006EDA
:10192000AB49C1F8180160E0FFE7A948B0F9AE0083
:10193000A749B1F9B010884257D0A548B0F8B40013
:10194000E0B9A348006EA249C1F818010120A1F82E
:10195000B4000846B0F8AE00A1F8B600A048008870
:10196000012803D102209E4908801CE09C48008881
:10197000022818D101209A49088014E09448B0F850
:10198000B40001280FD19248B0F9AE009049B1F9E6
:10199000B610884207D08E48006E8D49C1F81C01F0
:1019A0000220A1F8B4008A48B0F8B40002281CD183
:1019B0008748D0F81C018649D1F81811401A84498B
:1019C000C1F82001D1F8200100EBD071804AB2F9B2
:1019D000242102EB61017E4A1166D1650320804912
:1019E000088001201146A1F8AC007948B0F8AE009B
:1019F0007749A1F8B000784800897749C988401A2A
:101A000006B27948008800287ED07148008FD8B18E
:101A10006F48B0F94400002808DD6D48B0F8440074
:101A2000401E00B26A49A1F84400C7E16848B0F915
:101A300044000028F9DA6648B0F84400401C00B2BF
:101A40006349A1F84400B9E16648808802286FD153
:101A50005F48B0F86C0020B900205D49A1F844004F
:101A6000ACE15B48B0F96C00841B5948B0F94450B4
:101A700040F6C550854236DB002C1DDA5948B0F8D7
:101A80005A00C01059490968611A48435549B1F8CC
:101A90005C10C910614300EBE1005249B1F85E10DF
:101AA000534A12682244514B1B68D21A4F4B1B6891
:101AB000D21A01FB020570E04A48B0F85A00C01083
:101AC0004A490968611A48434649B1F85E10484AD4
:101AD00012682244454B1B68D21A444B1B68D21A29
:101AE00001FB020559E04348854239DC002C20DD2A
:101AF0003C48B0F85A00C1103C480068201A4143E5
:101B00003848B0F85C0000E067E1C010604301EBCA
:101B1000E0003449B1F85E20354909682144334B6F
:101B20001B68C91A314B1B68C91A02FB010534E056
:101B30006BE02C48B0F85A00C0102C490968611AB3
:101B400048432849B1F85E10294A12682244274BBD
:101B50001B68D21A254B1B68D21A01FB02051CE038
:101B60002048B0F85A00C01020490968611A48435B
:101B70001C49B1F85C10C910614300EBE101194840
:101B8000B0F85E201A4800682044184B1B68C01A41
:101B9000164B1B68C01A02FB0015B5F5806F01DA01
:101BA000002D01DAAD1202E0002D00DD01250F4805
:101BB00000680F4908600D4804600548B0F944000A
:101BC000054440F6C550854216DD054618E0000084
:101BD000CC21002024070020D42400200008004845
:101BE000BE0600201C230020BC060020D8060020D2
:101BF000DC0600203BF2FFFF7948854200DA05460B
:101C000028B27849A1F84400D8E07748B0F84201FA
:101C1000202803D101207549087002E00020734993
:101C200008707248007848B16E48B0F98E004710CD
:101C30006C48B0F990004FEA600804E06948B0F9D8
:101C40008E70B0F990806A48B0F90C0040F6A74158
:101C5000884229DD6348808A40F4005161488182CE
:101C60000020644908805F48D0F8E000002809DDC2
:101C70005C48B0F98E0047105A48B0F98E004FEA20
:101C8000600821E05748D0F8E000002809DA5548FC
:101C9000B0F9900047105348B0F990004FEA60083F
:101CA00012E00027B8460FE052480088642806DD9D
:101CB0004C48808A20F400514A48818204E04D4813
:101CC0000088401C4B490880BE4201DC464521DAB1
:101CD0004448808940F0080042498881BE4201DDC5
:101CE000BC1B05E0464502DAA8EB060400E0002430
:101CF0003D48B0F85A00801000FB04F52D123E4814
:101D000000683E4908603C4804603648B0F9440029
:101D1000054407E03348B0F94450808920F00800BA
:101D2000304988813648B0F9C601002809DA3448BC
:101D3000B0F9C801002804DA3148B0F9C6014442BC
:101D40000EE02F48B0F9C601002808DD2C48B0F994
:101D5000C801002803DD2A48B0F9C64100E000248C
:101D6000A4022148808A94FBF0F01F49496C084482
:101D70001D4908640846006C40F6C551484380126E
:101D8000194908640846006C40F6C551884202DDD6
:101D90000846154908641448006CA84202DA124843
:101DA000056C07E01048006C4042A84202DD0E4876
:101DB000006C454228B20B49A1F844000948B0F82C
:101DC00044000849A1F846000846007C00F00100E4
:101DD00018B1B1F9460009F023FEBDE8F08100001A
:101DE0003BF2FFFFCC2100201C2300202007002015
:101DF000D424002022070020D8060020DC06002082
:101E00004416002070B504460921714801F094FE83
:101E100000B20C34208409216E4801F08DFE00B21E
:101E2000E0836D48008800B220876B48808800B24C
:101E3000A4F840006848008900B26085664880893F
:101E400000B220856448008A00B2E0876248808A38
:101E500000B2A4F846006148008800B2A0855F483F
:101E6000808800B220865D48008900B2E0855B482A
:101E7000808900B260865A48008800B2A4F87800D1
:101E80005748808800B2A4F87C00B4F92A00B4F95D
:101E90000010401A216D08442065206D001100B229
:101EA0002080B4F9280034F9021C401AE16C08447F
:101EB000E064E06C001100B224F8020CA08D608098
:101EC000208EE080B4F92E00B4F90410401AA16D00
:101ED0000844A065A06D001100B2A080B4F93200E2
:101EE000B4F90810401A216E08442066206E0011D3
:101EF00000B22081B4F84600A083208FE081B4F9BD
:101F00003E00B4F91410401A216F08442067206F76
:101F1000801100B2A082B4F94000B4F91610401A42
:101F2000616F08446067606F801100B2E082E189F0
:101F30000C3C2C48A0F8F0102B480088FEF779FBE9
:101F400005460022294BFEF7FFFB02D8A08D6085D5
:101F50000BE027480088FEF76CFB05460022234B68
:101F6000FEF7F2FB01D8608DA085224800681E496B
:101F700008802048001D00681D490880683434F836
:101F80003E0CA18E401A00B224F8620C34F83C0CCE
:101F9000A18F401A00B224F8600CB4F91C00B4F907
:101FA0002210401AA16A0844A062A06A001100B27F
:101FB0006084B4F91E00B4F92410401AE16A0844A0
:101FC000E062E06A001100B2A084683C70BD0000CD
:101FD000480B0020140C0020200B0020380B0020A0
:101FE000140000201C23002040070020008AAB4082
:101FF00042070020342C0140683030F93E1CB0F913
:102000003420891A826B11448163816B091209B2F1
:10201000818630F93C1CB0F93C20891A426C11448D
:102020004164416C091209B2818768387047002207
:10203000143020F80E2C20F80C2CC28202834FF4AE
:10204000FE62A0F88820A0F890201202C0F88C2030
:10205000C0F89820002220F8082C4284A0F89C2088
:10206000C0F8A02020F80A2C0284A0F8A420C0F810
:10207000A82020F8062C42808280C2800281428102
:102080008281C2810282428282644264C264C265E9
:10209000026642668266C26682848285C285028644
:1020A00042868286C2860287428782871438002150
:1020B00006E0002220F8212000EB81035A80491C11
:1020C0000029F6D0002282807047000030B50E4D06
:1020D0000468AC4201D20D4901E00C4920310B46A5
:1020E0000478083C1425B4FBF5F2446CA40803EB17
:1020F00084048464054C8034C46402F01F05012408
:10210000AC40046530BD00000804024000080240F5
:1021100001794A1E064B03EB82024265044A4032B3
:1021200082654A1E02F01F0301229A40C265704771
:102130000009024030B5D0E913546C60446D14B10D
:10214000D0E916546C6090F8444004F01F05012457
:10215000AC40056C6C60046863608468102C04D12A
:102160000468A2600468E16003E00468A160046898
:10217000E26030BD2DE9F0417E48D0F8DC0041F648
:102180004C5148437C49098B90FBF1F000B27B49EC
:10219000A1F8C6017748806EC0EB00108000764938
:1021A000098B90FBF1F000B27449A1F8C8017449A1
:1021B000B1F90610724AB2F90820881AFEF728FA17
:1021C00021F000410546FEF76EFA04466D4904FB16
:1021D00001F0C11700EB1151091301F5FA714FF429
:1021E0007A7291FBF2F1654AA2F8CA116248B0F81E
:1021F00018011146A1F8CE016149B1F90C1001EBAB
:102200004110FEF705FA07465F4A604BFEF783F977
:102210000546FEF767FA5949A1F8D0015849B1F9C6
:102220000A1001EB4110FEF7F3F90746564A574BE7
:10223000FEF771F90546FEF755FA5049A1F8D201AB
:102240004F49B1F90E1001EB4110FEF7E1F90746D5
:1022500000224F4BFEF75FF90546FEF743FA474968
:10226000A1F8DC014348006E4249B1F92411084449
:102270004FF4616148434049C96B90FBF1F03F491D
:10228000A1F8D6013C48B0F84201A1F8FC01394858
:10229000B0F87A00A1F8D8013648B0F88C00A1F85F
:1022A000DA013448B0F83001A1F8F6013449B1F947
:1022B000201001EB4110FEF7ABF907460022344B2A
:1022C000FEF729F90546FEF70DFA2C49A1F8E801B9
:1022D0002B49B1F9221001EB4110FEF799F907469D
:1022E00000222B4BFEF717F90546FEF7FBF92349B1
:1022F000A1F8EA011F48B0F86000A1F8F4011D48F8
:10230000408FA1F8FA011E49098A962211FB02F0BA
:10231000C11700EB1151C1F30F31184AA2F8661131
:102320001749898A962211FB02F0C11700EB11515F
:10233000C1F30F31114AA2F868111046B0F8D60166
:10234000010A0D4880F85A11104690F8D6110A4833
:1023500080F85B111046B0F8C601010A064880F803
:102360005C11104690F8C611034880F85D11BDE875
:10237000F0810000CC2100201C2300204416002006
:10238000D4240020C63E05000AD7A3703D0A67404A
:102390000000A040704700E0401E0028FCD17047BC
:1023A0002DE9F84381460E460025002400271CE055
:1023B0006946484600F05CF80546012D00D115E05D
:1023C000601C84B2012C02D1BDF800800DE0BDF884
:1023D0000000404506D00024781C87B2032F04DBA0
:1023E000012503E0032C00DB00E0E1E700BFBDF8BE
:1023F00000003080012D05D10448408B40F480510D
:10240000024841832846BDE8F8830000CC21002023
:10241000F8B507460D46002400261AE0294638463E
:1024200000F080F80446012C00D113E069463846DC
:1024300000F01EF80446012C00D10BE0BDF80000AE
:10244000A84200D106E0701C86B2032E01DB0124F5
:1024500000E0E3E700BF012C05D10448408B40F4C5
:102460008051024841832046F8BD0000CC21002065
:102470007FB505460C46002600220421274803F0BC
:1024800075FA1420FFF787FF01220421234803F087
:102490006DFA45F4C060C0F3C7008DF80C00680702
:1024A000000E8DF80D0000208DF80E008DF80F0045
:1024B0004FF4FA70022302AA03A90090184804F00E
:1024C000F5FA00208DF80C008DF80D004FF4FA702D
:1024D000022301AA03A90090114804F0E7FA0022A0
:1024E00004210E4803F042FA9DF8090000019DF80E
:1024F000041040EA21104FF6FF7101EA002020800D
:102500009DF8040000019DF8051040EA2110C0B2BA
:10251000218808432080304604B070BD000C00487C
:10252000D8070020FEB504460D46002600220421EF
:102530003C4803F01BFA1420FFF72DFF0122042171
:10254000384803F013FA04208DF80800C0208DF8F5
:1025500009004FF4FA70022301AA02A90090324840
:1025600004F0A4FA002204212E4803F0FFF91420FD
:10257000FFF711FF012204212A4803F0F7F944F480
:10258000A060000A8DF80800E0B28DF809004FF451
:10259000FA70022301AA02A90090234804F086FAE7
:1025A000280A8DF80800E8B28DF809004FF4FA7097
:1025B000022301AA02A900901B4804F077FA002226
:1025C0000421184803F0D2F91420FFF7E4FE012299
:1025D0000421144803F0CAF91448FFF7DCFE002276
:1025E0000421104803F0C2F91420FFF7D4FE0122A1
:1025F00004210C4803F0BAF904208DF808000020EB
:102600008DF809004FF4FA70022301AA02A9009084
:10261000054804F04BFA00220421024803F0A6F911
:102620003046FEBD000C0048D8070020F0490200EB
:1026300072B600BFFEE7000010B5024802F0C2FC0F
:1026400010BD00003C08002010B51D4A1D4C036859
:10265000A34201D102F554721B4C0368A34201D17D
:1026600002F5D46202640368D3F8803023F4F814CE
:10267000838E44EA03430468C4F8803002F1700397
:1026800043640368D3F8803023F0706490F83830E6
:1026900044EA03630468C4F8803002F1B003836441
:1026A000D833C364D833036518334365114602E059
:1026B00000230B60091D02F554739942F8D310BD35
:1026C00000A4004000680040006C00402DE9F0418B
:1026D000054614461E46D1F804C0BCF1000F0AD1CD
:1026E000D1F810C0D1F808804CEA080CB1F800808D
:1026F0004CEA88430BE0D1F810C04CF0804CD1F884
:1027000008804CEA080CD1F800804CEA080391F8E4
:102710002080D1F81CC04CEA086CD1F818804CEA33
:10272000080CD1F814804CEA080CD1F80C804CEA63
:10273000080706EBC608D5F854C00CEBC8021360B6
:10274000121D1760121D002019E000F1030C14F88F
:102750000CC04FEA0C6800F1020C14F80CC048EAF7
:102760000C4800F1010C14F80CC048EA0C2C14F8C9
:1027700000804CEA080CC2F800C0121D001DDFF8F2
:102780001880D1F80CC008EB1C4C9CF800C08445A4
:10279000DBD8BDE8F0810000181B010870B50446C5
:1027A0004FF47A7000F0F6F9054685B90948006FD4
:1027B00020F480302043074908670846406940F408
:1027C000003048614FF47A7000F0E4F9054628467D
:1027D00070BD0000002002402DE9F04705460E467E
:1027E00017464FF47A7000F0D5F98246BAF1000F1F
:1027F00078D15248006800F4807098B94FF00068B2
:102800004F4800884FF6FF71884202D14FF40020F4
:1028100003E04B480088000480094FF0006101EBA1
:10282000500911E0464800884FF6FF71884202D1F6
:102830004FF4002003E042480088000480094FF074
:10284000006101EB500889463E48006A00F48000B0
:1028500078BB05F00300012813D1A6F1006004093C
:102860003848406A6FF30E00204336494862A7F1AA
:10287000006004090846806A6FF30E0020438862F6
:1028800048E005F00300022844D1A6F100600409E5
:102890002C48406C6FF30E0020432A494864A7F18E
:1028A000006004090846806C6FF30E0020438864C2
:1028B00030E0FFE705F00300012814D1A6EB080083
:1028C000C4082048406A6FF30E0020431D49486247
:1028D000A7EB0800C4080846806A6FF30E00204387
:1028E000886217E027E005F00300022812D1A6EB6A
:1028F0000900C4081348406C6FF30E0020431149CF
:102900004864A7EB0900C4080846806C6FF30E000A
:10291000204388640B48816A284661F31E000949F8
:1029200088620846406940F4003048614FF47A708C
:1029300000F030F982465046BDE8F08700000140C3
:10294000E075FF1F0020024070B504464FF47A7016
:1029500000F020F9054685B90948006A20F0FF001B
:102960002043074908620846406940F40030486146
:102970004FF47A7000F00EF90546284670BD00004D
:102980000020024070B504460D464FF47A7000F006
:1029900001F90646EEB9012C07D10F48006F20F06F
:1029A000FF0028430C49086708E0022C06D10A48BA
:1029B000406F20F0FF0028430749486706484069F8
:1029C00040F40030044948614FF47A7000F0E2F8B6
:1029D0000646304670BD0000002002402DE9F0415F
:1029E00004460D46002600274FF47A7000F0D2F816
:1029F0008046B8F1000F7DD104F0010020B105F44C
:102A0000E060064347F4E06704F0020020B105F4FB
:102A10008050064347F4805704F0040020B105F4C9
:102A20000050064347F4005704F4805020B105F4E9
:102A30008040064347F4804704F0080020B105F4C5
:102A40008030064347F4803704F0100020B105F4CD
:102A50000030064347F4003704F0200020B105F4AD
:102A60008020064347F4802704F0400020B105F49D
:102A70000020064347F4002704F0800020B105F44D
:102A80008010064347F4801704F4007020B105F469
:102A90000000064347F4000704F4806020B105F00D
:102AA0008070064347F0807704F4006020B105F0A1
:102AB0000070064347F0007704F4005020B105F0A1
:102AC0008060064347F0806704F4804020B105F041
:102AD0000060064347F0006704F4004020B105F0B1
:102AE0004050064347F0405704F4803030B105F0C1
:102AF000804000E012E0064347F080470948006A42
:102B0000B8433043074908620846406940F4003042
:102B100048614FF47A7000F03DF880464046BDE8C9
:102B2000F0810000002002402DE9F04104460D46EE
:102B300016464FF47A7000F02DF8074627BB24B9EB
:102B400045EA06401249C86213E0012C04D145EA67
:102B500006400F4908630CE0022C04D145EA064008
:102B60000B49C86405E0042C03D145EA0640084936
:102B700008650748406940F40030054948614FF452
:102B80007A7000F007F807463846BDE8F08100008B
:102B90000020024070B5054602F0EEFE064606E053
:102BA00002F0EAFE801BA84201D9032070BD1A483A
:102BB000006900F48030B0F5803FF1D0164800691C
:102BC0004CF2FA3100EA0104CCB1144840682043C9
:102BD0001249486000BF04F0704030B10E4880696F
:102BE00004F0704108430C49886124F0704018B12A
:102BF00024F070400849086100BF0120D6E706486C
:102C0000006900F0010020B100BF01200249086105
:102C100000BF0020CAE70000002002405407002047
:102C200070B52A48007B00F0010050B12848B0F987
:102C30000000002805DD26480088401E00B2244917
:102C400008802248C08900F4807000283DD11F48C8
:102C5000007C00F0010060B31D48008848BB1B48A1
:102C600000684403002C00DA6442184840684503B9
:102C7000002D00DA6D42AC4200DA2C461348D0F841
:102C80003801A04216DC13480088401C00B21149EC
:102C900008800846B0F90000032816DB08F0A6FEFD
:102CA0000A48C08940F480710848C1810C2007F0AF
:102CB0006FFB0AE00748B0F90000002805DD054871
:102CC0000088401E00B20349088070BDCC2100205E
:102CD000460700204407002010B50848D0F8CC1063
:102CE00088470648B0F90600054908600348B0F96E
:102CF00008004860FFF794FF10BD0000D4240020B6
:102D0000CC2100202DE9F04700BFFD48B0F922009A
:102D1000FC49C1F880000846D0F88000D1F8841042
:102D2000401AF849D1F888100844F649C1F88800DB
:102D30000846D0F888000011C1F88400D1F884104A
:102D400001EB411101EB8101052202EB4100FDF78E
:102D500051FC07464FF08A41FDF72DFB0646E94935
:102D6000D1F8841001EB4111481DFDF743FC80466A
:102D70004FF08A41FDF71FFB0746FDF780FCE14954
:102D8000A1F88C00E048C08D002870D101225102CA
:102D9000DE4802F0EBFD01220421DC4802F0E6FDF2
:102DA000D948408ED749B1F81011084484B2D648AA
:102DB000408ED449B1F81011401A85B2D248808EA5
:102DC000D149498E88425ADD2046FDF71CFC074652
:102DD0003146FDF7EDFC20D22046FDF714FC0746F6
:102DE0003146FDF7B3FA0646C749898E081BFDF741
:102DF00001FC8046C6493046FDF7ABFA81464146A4
:102E0000FDF7D9FA0746FDF721FC00B2BD49A1F84C
:102E10007A000120A1F87E0066E12846FDF7F3FB69
:102E200007463146FDF7CEFC22D22846FDF7EBFBE4
:102E300007463146FDF787FA0646B349098E681AF8
:102E4000FDF7D8FB8046B2493046FDF782FA81464D
:102E50004146FDF7B0FA0746FDF7F8FB00B2A94975
:102E6000A1F87A004FF0FF30A1F87E003CE17BE052
:102E70000020A449A1F87A00A1F87E0034E1A2481C
:102E8000008EA149498E884259DD2046FDF7BBFBE3
:102E900007463146FDF78CFC21D22046FDF7B3FBF7
:102EA00007463146FDF752FA06469749098E081B38
:102EB000FDF7A0FB804696493046FDF74AFA814669
:102EC0004146FDF778FA0746FDF7C0FB00B28D4991
:102ED000A1F87A004FF0FF30A1F87E0004E1284607
:102EE000FDF791FB07463146FDF76CFC20D22846E2
:102EF000FDF789FB07463146FDF725FA064682496C
:102F0000898E681AFDF776FB804681493046FDF7C9
:102F100020FA81464146FDF74EFA0746FDF796FB3B
:102F200000B27849A1F87A000120A1F87E00DBE028
:102F300000207449A1F87A00A1F87E00D4E00020B6
:102F40007049A1F87A00A1F87E0072480088B0F5B7
:102F5000167F05DA6F480088401C6E490880C3E080
:102F6000082007F015FABFE06748C08D012852D14C
:102F700001224102654802F0F9FC01220421634864
:102F800002F0F4FC6049088EFDF73DFB0746314630
:102F9000FDF70EFC27D25C49088EFDF734FB07468F
:102FA0003146FDF7D3F906465749898E564A128EA7
:102FB000881AFDF71FFB804655493046FDF7C9F9D1
:102FC00081464146FDF7F7F90746FDF73FFB00B2A2
:102FD0004C49A1F87A0000214B48A0F8D8101820DD
:102FE00006F096FC80E000204649A1F87A004A48A5
:102FF00090F8280128B94948B0F88010182009F045
:10300000ADF8454890F8290100286DD001213E48CF
:10301000A0F8D81068E03C48C08D022853D10022A7
:1030200001023A4802F0A2FC00220421374802F0D3
:103030009DFC3B48006800B23249A1F830010846C7
:10304000B0F93001002811DB0120A1F87E0008460C
:10305000B0F93001B1F93411884224DD2948B0F9C2
:1030600034112F48243809F0E1FE1CE04FF0FF3006
:103070002449A1F87E000846B0F93001B1F93611B3
:103080004942884207DA1F48B0F9360141422448D4
:10309000243809F0CBFE1B48B0F83001404200B2A2
:1030A0001849A1F830011748B0F83001642110FB2D
:1030B00001F01449B1F9321190FBF1F000B211495D
:1030C000A1F87A0010E000224FF400710F4802F0DE
:1030D0004DFC002204210D4802F048FC0020094963
:1030E000A1F87A00A1F87E000648B0F97A006428B9
:1030F00003DD64200349A1F87A00BDE8F0870000F1
:10310000D4240020CC2100201C23002000040048EF
:103110000000C84238070020641300204416002035
:103120002408004002460020012901D1D2B21046F5
:10313000022901D1120AD0B2032901D1120CD0B256
:10314000042901D1120E10467047000010B56B48DB
:10315000808870BB6948C088012804D10BF022F92F
:103160006749C8651AE06748B0F944406348C06BD6
:1031700060434FF4616190FBF1F46048806BA042C2
:1031800002DA5E48846B07E05C48806B4042A042F4
:1031900002DD5A48806B44425948C4655748B0F82C
:1031A0008000002804D05648C06D40425449C8658C
:1031B000A2E0FFE751488088012841D14F48C088EC
:1031C00001281DD14E48B0F97A404C48808A6043AE
:1031D000642190FBF1F44948008B60433C2190FB53
:1031E000F1F44748B0F87E00012800D111E04448CE
:1031F000B0F97E00401C08B964420AE0002408E0EF
:103200004048B0F942003D49098B48433C2190FBBE
:10321000F1F43A48B0F8800000B164423848806D5B
:10322000A04202DA3648846D07E03548806D40429E
:10323000A04202DD3248806D4442314884665BE042
:103240002E488088022829D12D48B0F97A402B4891
:10325000C06860436421B0FBF1F420032A4990FB6D
:10326000F1F42748B0F87E00012800D107E0244897
:10327000B0F97E00401C08B9644200E00024B4F5B7
:10328000966F02DD4FF4966403E014F5966F00DA52
:103290001E4C20B21A49A1F86C002DE01748808816
:1032A000032826D11648B0F87A4040F6C55014FBE2
:1032B00000F0642190FBF1F41148B0F87E00012881
:1032C00000D107E00E48B0F97E00401C08B9644206
:1032D00000E0002440F6C550844201DD044603E0CE
:1032E0000B48844200DA044620B20549A1F84800A0
:1032F00002E001200249088710BD00001C230020C5
:10330000CC210020AC250020C63E050050FBFFFF6D
:103310003BF2FFFF30B50346002409B9002030BD61
:103320001A4603E012F8015B2819C4B2081EA1F185
:103330000105A9B2F6D12046F1E70000F0B5074635
:103340000D4607F0C9FD002038700420287024487D
:10335000807C00F0400088B32148817C214880F8BF
:103360007C111F48017C163000EBC11090F83F60C3
:10337000C6F3C20038701A48807C00F0200068B3A1
:103380001748817C174880F867111548C17B1630B3
:1033900000EBC11090F83F4004F0070018B170072F
:1033A000B0EB447F03D006F00700052802D10020CF
:1033B000287013E0C4F3C20028700FE0FFE708484C
:1033C000807C00F0200048B10548817C054880F8E9
:1033D000671190F86241C4F3C2002870F0BD00008C
:1033E000440F00201C230020F8B504460D460020A1
:1033F000009000BF94F85800012801D10220F8BDC8
:10340000012084F8580000BF2046FDF75BFB06460C
:103410008EBBE06D20F4885040F00200E06520682B
:1034200081681B4A114005F0804242F0004211437E
:10343000816000BF13E00098401C0090154900987F
:1034400088420CD3E06D20F0020040F01000E065EF
:1034500000BF002084F8580000BF0120CFE720689B
:103460008168C90F0029E6D1E06D20F0020040F02C
:103470000100E06504E0FFE7E06D40F01000E0656A
:1034800000BF002084F8580000BF3046B7E70000B6
:10349000C0FFFF3F02DE04002DE9FC5F05460C463D
:1034A0000020019000900027686900B100BFFE492C
:1034B000E068884200D000E000BF00BF95F85800E7
:1034C000012802D10220BDE8FC9F012085F85800A8
:1034D00000BF686910B1206A01281ED16068092800
:1034E0004ED1A06A60B194F8280000F07C002168F9
:1034F000C1F3846140EA4120E16A40EA010703E048
:103500002068C0F3846047022868C06CE74908401F
:1035100038432968C8646F6632E0A86E90B9216AA2
:10352000A96600206866A06A50B1206A401E94F81F
:10353000281001F07C010843E16A40EA010701E03C
:10354000206A471E207900F01F0100208840874331
:103550002068C0F38460217901F01F01884007438F
:10356000A86E401EA866686E38436866A86E38B9B3
:103570002868C06CCD490840696E08432968C86452
:10358000286806F0C3FAD8B994F8250070B994F801
:103590002600400594F8241040EA01502968C968C3
:1035A00021F4401108432968C86009E02868C06810
:1035B00020F4401094F8261040EA41502968C86071
:1035C000286806F0CCFA8246286806F09FFA814601
:1035D000BAF1000F7ED1B9F1000FFBD1A06A08B19A
:1035E000E06A88B994F82500012806D12868C068E7
:1035F00040F000702968C86017E02868C06820F0B3
:1036000000702968C86010E094F82500012806D1F0
:10361000E86D40F02000E8650120019005E0286891
:10362000C06820F000702968C86094F83000012854
:103630000CD1606B40F00200A16B08432968096956
:1036400021F4FF7108432968086105E028680069D2
:1036500020F0020029680861A068B0F1004F0AD18B
:1036600021680022286806F0ADFA4FF00041286872
:1036700006F0E4FA08E0A2682168286806F0A2FAD9
:103680000021286806F0DAFA60692968C968C1F380
:10369000C101490000FA01F82069042840D02868D7
:1036A0002268216900F1600C0CEB8103D3F800C0A3
:1036B000DFF8FCB10CEA0B0C02F0F84B4BF0004BBE
:1036C0004BEA080B4CEA0B0CC3F800C000BF28689B
:1036D000A26900E0CCE0216900F1600C0CEB8103F1
:1036E000D3F800C02CF0807C4CEA020CC3F800C078
:1036F00000BF2868227F2169012A01D1520600E01B
:103700000022134600F1600C0CEB8102D2F800C0DD
:103710002CF0007C4CEA030CC2F800C000BFA7E00C
:103720000021286806F0DFF9C0F3120030B900214B
:10373000286806F0D8F9C0F3846007E00021286803
:1037400006F0D1F990FAA0F0B0FA80F02168C1F348
:10375000120119B92168C1F3846104E0216891FA6A
:10376000A1F1B1FA81F1884204D100221146286802
:1037700006F053FA0121286806F0B5F9C0F31200EB
:1037800030B90121286806F0AEF9C0F3846007E083
:103790000121286806F0A7F990FAA0F0B0FA80F0AD
:1037A0002168C1F3120119B92168C1F3846104E0F1
:1037B000216891FAA1F1B1FA81F1884204D1002285
:1037C0000121286806F029FA0221286806F08BF901
:1037D000C0F3120030B90221286806F084F9C0F362
:1037E000846007E00221286806F07DF990FAA0F0D5
:1037F000B0FA80F02168C1F3120119B92168C1F350
:10380000846104E0216891FAA1F1B1FA81F1884262
:1038100004D100220221286806F0FFF9032128685C
:1038200006F061F9C0F3120030B90321286806F0F0
:103830005AF9C0F3846007E00321286806F053F9C1
:1038400090FAA0F0B0FA80F02168C1F3120119B922
:103850002168C1F3846104E0216891FAA1F1B1FA11
:1038600081F1884204D100220321286806F0D5F9AD
:10387000286806F065F9002873D12868E268216895
:10388000D0F8B030C1F3120C23EA0C0302F0180B8D
:10389000DFF820C02CFA0BFC0CEA010C43EA0C0305
:1038A000C0F8B03000BF07E000007F4000401004C7
:1038B00000F0FF03FFFF07009249E068884250D103
:1038C0002368C3F312031BB92368C3F3846304E0C2
:1038D000236893FAA3F3B3FA83F35B1C03F01F038B
:1038E000092B3FD82368C3F312031BB92368C3F322
:1038F000846304E0236893FAA3F3B3FA83F35B1CB5
:1039000003F01F034FF0010C0CFA03FC2368C3F310
:1039100012031BB92368C3F3846304E0236893FA9A
:10392000A3F3B3FA83F35B1C03F01F034CEA836C2D
:103930002368C3F312031BB92368C3F3846304E051
:10394000236893FAA3F3B3FA83F35B1C03F01F031A
:1039500003EB43034FF0000B4BEA03534CEA030322
:103960003FE043E02368C3F312031BB92368C3F3AA
:10397000846304E0236893FAA3F3B3FA83F35B1C34
:1039800003F01F034FF0010C0CFA03FC2368C3F390
:1039900012031BB92368C3F3846304E0236893FA1A
:1039A000A3F3B3FA83F35B1C03F01F034CEA836CAD
:1039B0002368C3F312031BB92368C3F3846304E0D1
:1039C000236893FAA3F3B3FA83F35B1C03F01F039A
:1039D0000A3B03EB43034FF0007B4BEA03534CEAF3
:1039E00003031946A268286806F0ECF846492068E7
:1039F000084000287ED02968B1F1A04F03D0434A87
:103A00002968914201D1424900E042490846816853
:103A100001F0E07600BF40492068884203D03F496A
:103A2000206888422BD106F4000040BB2868B0F122
:103A3000A04F03D03A49286888425BD12A68B2F186
:103A4000A04F03D0314B2A689A4201D1304A00E09E
:103A5000304A104646F4000106F0CEF831480068BE
:103A60003149B0FBF1F000EB40008000009002E033
:103A70000098401E009000980028F9D13AE02B49A8
:103A8000206888421BD106F08070C0B91F492868A1
:103A9000884203D12649286888422BD02A68B2F18F
:103AA000A04F03D0194B2A689A4201D1184A00E06E
:103AB000184A104646F0807106F09EF81AE01D493B
:103AC0002068884216D106F4800098B90F4928680A
:103AD00088420FD02A68B2F1A04F03D00B462A6863
:103AE0009A4201D10A4A00E00A4A104646F480018F
:103AF00006F082F800BF002085F8580000BF01984A
:103B0000E1E4000000007F40000008800001005058
:103B10000003005000070050000021C31000C090B7
:103B20000006005028000020400D0300000052C78E
:103B300000050050000084CB0246092915D0A1F2EF
:103B40000F136BB1B3F5837F06D0B3F5037F0BD1B1
:103B50001368D3F88C000CE01368D3F8880008E0F1
:103B60001368D3F8840004E000BF1368D3F8800022
:103B700000BF00BF704700002DE9F04104462168F6
:103B8000B1F1A04F03D0464A2168914201D1454985
:103B900000E04549084605F098FF0546206805F015
:103BA000B5FF10B10220BDE8F0812068C06800F0C8
:103BB00000472068C06C00F4C07030B92FB9E06DC8
:103BC00040F02000E0650120EDE700BF94F85800C8
:103BD000012801D10220E6E7012084F8580000BF47
:103BE0002046FCF7B3FF0646002E52D1E06D00F4EC
:103BF000807020B1206E20F00800206601E00020D7
:103C00002066E06D42F20101884340F48050E06597
:103C100023492068884202D14FF0A04006E02349A2
:103C20002068884201D1224800E02068216888424B
:103C300000D01DB9E06D20F48010E065602021689F
:103C4000086000BF002084F8580000BF14492068B5
:103C5000884202D14FF0A04006E014492068884213
:103C600001D1134800E020682168884204D01DB1CA
:103C7000062D01D0072D07D1206805F03DFF68B95A
:103C8000206805F049FF09E0E06D40F48010E06530
:103C900004E000BF002084F8580000BF304682E7EF
:103CA00000010050000300500007005000050050C4
:103CB000000400502DE9F04104462168B1F1A04F05
:103CC00003D05B4A2168914201D15A4900E05A4928
:103CD000084605F0FAFE0546206805F017FF10B10A
:103CE0000220BDE8F0812068C06800F0004720682D
:103CF000C06C00F4C07030B92FB9E06D40F0200006
:103D0000E0650120EDE700BF94F85800012801D1DB
:103D10000220E6E7012084F8580000BF2046FCF7A7
:103D200015FF0646002E7CD1E06D00F4807020B1B6
:103D3000206E20F00800206601E000202066E06D83
:103D400042F20101884340F48050E0653849206820
:103D5000884202D14FF0A04006E0384920688842EE
:103D600001D1374800E020682168884200D01DB9A1
:103D7000E06D20F48010E06560202168086000BFDD
:103D8000002084F8580000BF2068C06800F40010CC
:103D900028B12068406840F4806021684860A069CC
:103DA00008280CD12068406820F020002168486075
:103DB0002068406840F04000216848600CE02068BE
:103DC000406820F04000216848602068406840F06A
:103DD00020002168486000BF00BF15492068884264
:103DE00002D14FF0A04006E014492068884201D17A
:103DF000134800E020682168884204D01DB1062DD8
:103E000001D0072D08D1206805F076FE70B9206832
:103E100005F082FE0AE004E0E06D40F48010E06509
:103E200004E000BF002084F8580000BF304658E787
:103E30000001005000030050000700500005005032
:103E4000000400502DE9F0439BB004460E464FF0AD
:103E50000008306800B100BF00BF94F85800012886
:103E600003D102201BB0BDE8F083012084F8580084
:103E700000BF2068B0F1A04F02D15748009008E081
:103E800056492068884202D15548009001E0002040
:103E90000090009850B9E06D40F02000E06500BF50
:103EA000002084F8580000BF0120DBE7009805F0EF
:103EB00056FE0746206805F052FE00287FD1002FED
:103EC0007DD12068B0F1A04F03D0434920688842DB
:103ED00001D1444800E0444805463068D8B394F81E
:103EE0003800716841EA4030A96821F46041084314
:103EF000A8602068B0F1A04F03D0374920688842FD
:103F000001D1384800E03848364988420AD14FF09C
:103F1000A04005F015FE81462F4805F011FE49EA44
:103F200000000DE02D4805F00BFE81462C4805F001
:103F300007FE49EA00092D4805F002FE49EA0000A3
:103F4000D8BBB16830680843A96840F61F72914336
:103F50000843A86039E0FFE7A86820F46040A86043
:103F60002068B0F1A04F03D01B492068884201D1DE
:103F70001C4800E01C481B4988420AD14FF0A04071
:103F800005F0DEFD8146144805F0DAFD49EA00003F
:103F90000DE0124805F0D4FD8146114805F0D0FD32
:103FA00049EA0009114805F0CBFD49EA000020B9B3
:103FB000A86840F61F718843A86006E0FFE7E06D3F
:103FC00040F02000E0654FF0010800BF002084F8B9
:103FD000580000BF404645E7000100500004005073
:103FE000000500500003005000070050000600507C
:103FF0002DE9F84F05460C464FF0000A00200090CE
:10400000FE49E068884200D000E000BF00BF95F89C
:104010005800012802D10220BDE8F88F012085F860
:10402000580000BF286805F095FD00287DD129685B
:10403000D4E9002001F1300CC0F3012B0CEB8B0311
:10404000D3F800C000F01F0E4FF01F0B0BFA0EFB51
:104050002CEA0B0C00F01F0BC2F3846E0EFA0BFE61
:104060004CEA0E0CC3F800C000BF286805F072FDD2
:104070008146286805F045FD8046B9F1000F64D1FE
:10408000B8F1000FFBD1A068B0F1004F0AD1216850
:104090000022286805F082FD4FF00041286805F0F5
:1040A000C7FD08E0A2682168286805F077FD0021B7
:1040B000286805F0BDFD60692968C968C1F3C101C0
:1040C000490000FA01F7206904283FD028682268D7
:1040D000216900F1600C0CEB8103D3F800C0DFF81C
:1040E00020B30CEA0B0C02F0F84B4BF0004B4BEA00
:1040F000070B4CEA0B0CC3F800C000BF2868A2698C
:10410000216900F1600C0CEB8103D3F800C02CF0A6
:10411000807C4CEA020CC3F800C000BF2868227FF4
:104120002169012A02D1520601E0F9E10022134679
:1041300000F1600C0CEB8102D2F800C02CF0007C86
:104140004CEA030CC2F800C000BFA7E000212868B9
:1041500005F0C0FCC0F3120030B90021286805F05A
:10416000B9FCC0F3846007E00021286805F0B2FCC8
:1041700090FAA0F0B0FA80F02168C1F3120119B9E9
:104180002168C1F3846104E0216891FAA1F1B1FAD8
:1041900081F1884204D100221146286805F032FDE1
:1041A0000121286805F096FCC0F3120030B9012106
:1041B000286805F08FFCC0F3846007E001212868BF
:1041C00005F088FC90FAA0F0B0FA80F02168C1F305
:1041D000120119B92168C1F3846104E0216891FAE0
:1041E000A1F1B1FA81F1884204D1002201212868AD
:1041F00005F008FD0221286805F06CFCC0F31200F0
:1042000030B90221286805F065FCC0F3846007E03E
:104210000221286805F05EFC90FAA0F0B0FA80F068
:104220002168C1F3120119B92168C1F3846104E066
:10423000216891FAA1F1B1FA81F1884204D10022FA
:104240000221286805F0DEFC0321286805F042FC05
:10425000C0F3120030B90321286805F03BFCC0F31D
:10426000846007E00321286805F034FC90FAA0F090
:10427000B0FA80F02168C1F3120119B92168C1F3C5
:10428000846104E0216891FAA1F1B1FA81F18842D8
:1042900004D100220321286805F0B4FC286805F049
:1042A0004AFC002872D12868E2682168D0F8B03052
:1042B000C1F3120C23EA0C0302F0180BDFF844C11F
:1042C0002CFA0BFC0CEA010C43EA0C03C0F8B030EA
:1042D00000BF4A49E068884258D12368C3F31203FB
:1042E0001BB92368C3F3846304E0236893FAA3F340
:1042F000B3FA83F35B1C03F01F03092B3ED823683A
:10430000C3F312031BB92368C3F3846304E0236877
:1043100093FAA3F3B3FA83F35B1C03F01F034FF08C
:10432000010C0CFA03FC2368C3F312031BB92368C6
:10433000C3F3846304E0236893FAA3F3B3FA83F32B
:104340005B1C03F01F034CEA836C2368C3F3120366
:104350001BB92368C3F3846304E0236893FAA3F3CF
:10436000B3FA83F35B1C03F01F0303EB43034FF02B
:10437000000B4BEA03534CEA030347E02368C3F303
:10438000120323B92368C3F3846305E043E0236881
:1043900093FAA3F3B3FA83F35B1C03F01F034FF00C
:1043A000010C0CFA03FC2368C3F312031BB9236846
:1043B000C3F3846304E0236893FAA3F3B3FA83F3AB
:1043C0005B1C03F01F034CEA836C2368C3F31203E6
:1043D0001BB92368C3F3846304E0236893FAA3F34F
:1043E000B3FA83F35B1C03F01F030A3B03EB4303A5
:1043F0004FF0007B4BEA035306E0000000007F40D3
:1044000000F0FF03FFFF07004CEA03031946A26810
:10441000286805F0C3FB494920680840002842D0BD
:104420002968B1F1A04F03D0454A2968914201D1D2
:10443000444900E044490846816801F0E07600BF45
:1044400042492068884203D04149206888422BD1E4
:1044500006F4000040BB2868B0F1A04F03D03D49EE
:104460002868884262D12A68B2F1A04F03D0344B49
:104470002A689A4201D1334A00E0334A104646F492
:10448000000105F0B3FB344800683449B0FBF1F09B
:1044900000EB40008000009002E00098401E009079
:1044A00000980028F9D141E02D49206888421BD1AD
:1044B00006F08070C0B922492868884203D1294992
:1044C0002868884232D02A68B2F1A04F03D01C4B32
:1044D0002A689A4201D11B4A00E01B4A104646F066
:1044E000807105F083FB21E01F49206888421DD1BF
:1044F00006F48000D0B912492868884216D02A688C
:10450000B2F1A04F03D00B462A689A4201D10D4A5E
:1045100000E00D4A104646F4800105F067FB05E017
:10452000E86D40F02000E8654FF0010A00BF002070
:1045300085F8580000BF50466EE500000000088076
:10454000000100500003005000070050000021C38C
:104550001000C0900006005028000020400D03000D
:10456000000052C700050050000084CB7047704720
:10457000704700002DE9F84F04464FF00009002075
:10458000009014B90120BDE8F88F606920B194F85B
:104590002400012800D100BFE06D30B9204600F0B2
:1045A00049F90020206684F8580020688168C1F32A
:1045B000407131B120688168934A1140816000BF29
:1045C00000BF206805F0C1FAA0B9206881688F4A51
:1045D000114041F08051816000BF8D4800688D49D5
:1045E000B0FBF1F0009002E00098401E00900098AF
:1045F0000028F9D1206805F0A8FA48B9E06D40F02C
:104600001000E065206E40F0010020664FF00109C7
:10461000206805F09FFA0646E06D00F010000028C3
:104620007ED1002EFCD1E06D20F4807040F00200BD
:10463000E065206805F07FFA88BB2068B0F1A04FE4
:1046400003D075492068884201D1744800E074485D
:10465000724988420AD14FF0A04005F06CFA8246B8
:104660006D4805F068FA4AEA00000DE06D4805F073
:1046700062FA82466C4805F05EFA4AEA000A6B4824
:1046800005F059FA4AEA000048B92268B2F1A04F91
:1046900003D0614B22689A4202D1604A01E009E0EE
:1046A0005F4A10466168826822F47C120A43826085
:1046B00000BF00BF607FE16B41EA4030E168084322
:1046C000A168084394F8241040EA014594F82400B6
:1046D000012803D1208D401E45EA4045E06A28B1FB
:1046E000A08D00F47870216B084305432068C068F2
:1046F0004F49084028432168C8602068006920F0BD
:104700004060616B084321680861206805F022FA67
:104710008046206805F0F5F90746B8F1000F00E083
:104720006AE04FD1F7BB207F002141EA803194F845
:10473000380041EA40052068C06844F2020188431D
:1047400028432168C860206980B12068006940F46E
:104750008030216808612068D0F8C0006FF30D0038
:10476000216908432168C1F8C0000DE02068006994
:1047700020F48030216808612068D0F8C0006FF311
:104780000D002168C1F8C00094F84000012813D141
:10479000606C40F00101A06C0843E16C0843216D9E
:1047A000084300E00EE02168096940F2FC72914381
:1047B00008432168086105E02068006920F00100D5
:1047C000216808616069012809D12068006B20F028
:1047D0000F00216A491E08432168086305E020682C
:1047E000006B20F00F0021680863E06D20F00200EC
:1047F00040F00100E06505E0E06D40F01000E0658C
:104800004FF001094846BEE6C0FFFF5FC0FFFF7FD3
:1048100028000020400D030000010050000300505C
:104820000007005000040050000500500006005032
:104830000740F0FF10B586B00446142101A8FBF72D
:1048400025FD2068B0F1A04F64D1AB480068401C42
:10485000A94908600846006801280DD100BFA74893
:10486000C06C40F40050A549C8640846C06C00F410
:104870000050009000BF00BF00BFA048C06C40F0D7
:1048800001009E49C8640846C06C00F00100009019
:1048900000BF00BF0E200190032002900020039073
:1048A00001A94FF0904000F063FF00BF9348C06C37
:1048B00040F004009149C8640846C06C00F0040050
:1048C000009000BF00BF0D20019003200290002047
:1048D000039001A98A4800F04BFF8A488A49086082
:1048E00005204860002188488160C1608021016105
:1048F00089004161890081612021C1610902016251
:1049000000F0B6F908B1FDF793FE00BF7E48606580
:104910008462EFE07D492068884265D1764800686E
:10492000401C754908600846006801280DD100BF89
:104930007248C06C40F400507049C8640846C06CAE
:1049400000F40050009000BF00BF00BF6B48C06C77
:1049500040F001006949C8640846C06C00F00100DD
:10496000009000BF00BFF1200190032002900020C2
:10497000039001A94FF0904000F0FAFE00BF5F489D
:10498000C06C40F002005D49C8640846C06C00F08D
:104990000200009000BF00BF0120019003200290A0
:1049A0000020039001A95A4800F0E2FE5548143057
:1049B0005849086024204860002156488160C16041
:1049C0008021016189004161890081612021C161EB
:1049D0000902016200F04CF908B1FDF729FE00BFA1
:1049E0004C486065846285E04B49206888424BD121
:1049F0004A480068401C4949086008460068012888
:104A00000DD100BF3D48C06C40F480403B49C864B4
:104A10000846C06C00F48040009000BF00BF00BF9B
:104A20003648C06C40F002003449C8640846C06C87
:104A300000F00200009000BF00BF03200190029030
:104A40000020039001A9324800F092FE2D48283042
:104A50003349086025204860002131488160C160E9
:104A60008021016189004161890081612021C1614A
:104A70000021016200F0FCF808B1FDF7D9FD00BF8C
:104A800027486065846235E026492068884216D14F
:104A900022480068401C2149086008460068012837
:104AA00028D100BF1548C06C40F480401349C86449
:104AB0000846C06C00F48040009000BF1AE01A491C
:104AC0002068884216D115480068401C13490860C8
:104AD0000846006801280DD100BF0848C06C40F4AA
:104AE00080400649C8640846C06C00F480400090CD
:104AF00000BF00BF06B010BD200000200010024023
:104B00000008004808000240B40B002000010050DB
:104B100000040048800C0020000400502400002005
:104B20004C0D002000050050000600502DE9F0411A
:104B300004460F4690462168B1F1A04F03D0444A85
:104B40002168914201D1434900E04349084604F0FD
:104B5000B7FF0646206804F0FDFF002874D100BFAF
:104B600094F85800012802D10220BDE8F08101200C
:104B700084F8580000BF1EB1052E01D0092E5CD16B
:104B80002046FBF7E3FF0546002D51D1E06D40F6CE
:104B90000161884340F48070E0652D4920688842B7
:104BA00002D14FF0A04006E02C492068884201D194
:104BB0002B4800E020682168884200D01EB9E06DD3
:104BC00020F48010E065E06D00F4805020B1206E8C
:104BD00020F00600206601E0002020662148616D7B
:104BE000C8622148616D08632048616D48631C20DC
:104BF0002168086000BF002084F8580000BF2068CA
:104C0000406840F01000216848602068C06840F0AB
:104C100001002168C860226802F1400143463A461B
:104C2000606D00F08DF80546206804F0AFFF0CE0E1
:104C300000BF002084F8580007E0012500BF0020D5
:104C400084F8580001E0FFE7022528468DE70000C0
:104C50000001005000030050000700500005005004
:104C600000040050050A0008B50A0008970A000869
:104C700070B504460CB9012070BD2F4920688842E8
:104C80000BD22E492068401A1421B0FBF1F08000AD
:104C900060642A48083820640AE027492068401ADE
:104CA0001421B0FBF1F080006064234808382064D0
:104CB000022084F825002068056847F6F0708543D7
:104CC000D4E9020108432169084361690843A169E5
:104CD0000843E1690843216A0843054320680560E9
:104CE0002046FDF7F3F9A068B0F5804F01D1002010
:104CF00060602079A16C0860D4E913104860606896
:104D000060B16068042809D82046FDF701FA002048
:104D1000616D0860D4E91610486003E0002060650A
:104D2000A065E0650020E063012084F825000020F4
:104D300084F8240000BF9FE70804024008000240F6
:104D40002DE9F04104460D4616461F464FF0000877
:104D500000BF94F82400012802D10220BDE8F081B0
:104D6000012084F8240000BF94F8250001283FD1D9
:104D7000022084F825000020E0632068006820F00D
:104D80000100216808603B46324629462046FDF76F
:104D9000D1F9206B30B12068006840F00E00216826
:104DA00008600BE02068006820F0040021680860BB
:104DB0002068006840F00A0021680860A06C006864
:104DC00000F4803028B1A06C006840F48070A16CC1
:104DD0000860606D28B1606D006840F48070616D9E
:104DE00008602068006840F001002168086006E063
:104DF00000BF002084F8240000BF4FF002084046A6
:104E0000ACE7000070B5044600F0B6FD0646254646
:104E1000681C10B104480068054400BF00F0ACFDF8
:104E2000801BA842FAD370BD500700202DE9F04145
:104E300004460E461746706800B900E000BF94F8BB
:104E40005C00022821D12068D0F8C40000F40010D2
:104E500030B1206E40F4007020660120BDE8F08182
:104E60002068D0F8C400C0F301452B463A463146CD
:104E70002046FDF72BFC0120A8402168C1F8CC009A
:104E80000120A840A0650020E8E7206E40F008005F
:104E900020660120E2E77047704700002DE9F043EB
:104EA00004460E469C4694F85C80B8F1020F79D116
:104EB000402E17D12068D0F8900000F00F0030B9D4
:104EC000206E40F4807020660120BDE8F0832068E9
:104ED000D0F89000C0F3012303EBC309A06C00EBF2
:104EE000C90115E02068D0F8980000F00F0028B93B
:104EF000206E40F4807020660120E6E72068D0F83C
:104F00009800C0F3012303EBC309E06C00EBC90177
:104F1000086800F080405060506820B90868C0F30D
:104F20008A40106003E0086820F060401060086864
:104F300000F000509060086800F000401061091D0A
:104F4000088880B2D061086800F47020D0600868DA
:104F500000F480105061086800F400109061086847
:104F6000C0F3066010620868C00F5062091D0F464A
:104F7000002503E0785D0CF805006D1CDFF830902B
:104F8000D06809EB10400078A842F3D8402E04D135
:104F90002068C0F8943003E004E02068C0F89C303A
:104FA000002092E7206E40F00800206601208CE788
:104FB000181B010801460A68D2F8C42002F0070055
:104FC000704770472DE9F05F04462068006D00F4DB
:104FD000E0552068406D05402068006D00F0070630
:104FE0002068406D06402068006D00F0380720689A
:104FF000406D07402068006D00F471082068406D26
:1050000000EA08082068006D00F460292068406DFF
:1050100000EA09092068006D00F0400050B12068E6
:10502000406D00F0400028B140202168086520460E
:10503000FFF7C7FF2068006D00F48070A0B1206802
:10504000406D00F4807078B12068D0F8D8B0206846
:10505000D0F8E00000EA0B0B4FF48070216808657F
:105060005946204600F06BFA2DB1206805652946A7
:10507000204600F066FA2EB12068066531462046CB
:1050800000F0EAF92FB1206807653946204600F0A4
:1050900029FA2068006D00F4007058B12068406D56
:1050A00000F4007030B14FF40070216808652046AC
:1050B00000F048FA2068006D00F0800098B1206888
:1050C000406D00F0800070B12068D0F8D4A0206856
:1050D000D0F8DC0000EA0A0A802021680865514601
:1050E000204600F02DFA2068006D00F4005058B101
:1050F0002068406D00F4005030B14FF4005021683A
:105100000865204600F01AFA2068006D00F400409F
:1051100058B12068406D00F4004030B14FF40040B9
:1051200021680865204600F008FA2068006D00F448
:10513000804060B12068406D00F4804038B14FF489
:10514000804021680865206E40F080002066B9F13B
:10515000000F06D02068C0F8509049462046FFF75F
:105160009BFEB8F1000F06D02068C0F85080206E7A
:1051700040EA08002066206E10B12046FFF78BFE43
:10518000BDE8F09F70B504460CB9012070BD81499F
:105190002068884200D100BFA068B0F5407F00D1F0
:1051A00000BF94F85C0028B9002084F85D00204618
:1051B00000F0F4F82068806920F010002168886110
:1051C00000F0DAFB05460DE000F0D6FB401B0A2894
:1051D00008D9206E40F001002066032084F85C00AE
:1051E0000120D3E72068806900F008000828EBD090
:1051F0002068806940F001002168886100F0BCFBF4
:1052000005460DE000F0B8FB401B0A2808D9206EC7
:1052100040F001002066032084F85C000120B5E71F
:105220002068806900F001000028EBD020688069C8
:1052300040F002002168886156492068884202D106
:10524000554960680860207C012806D12068806983
:1052500020F040002168886105E02068806940F006
:10526000400021688861607C012806D1206880693F
:1052700040F480402168886105E02068806920F45E
:10528000804021688861A07C012806D1206880695F
:1052900020F480502168886105E02068806940F42E
:1052A0008050216888612068806920F44070A1687E
:1052B0000843216888612068806920F0A400216883
:1052C00088612068006920F0100021680861E068AA
:1052D000012806D12068806940F0040021688861B7
:1052E00020E0E068F0B1E068022815D0206880690D
:1052F00040F08000216888612068006940F010005B
:1053000021680861E06803280CD12068806940F0BA
:1053100020002168886105E02068806940F0200055
:1053200021688861207E401E4106E069401E41EAF6
:105330000020216A491E0843A18A491E40EA014013
:105340002168C861A068B0F5407F0FD1A06A401EF7
:10535000E16A491E40EA0121206B401E41EA00112A
:10536000A08C401E41EA00402168C8602068D0F847
:10537000C000E16B08432168C1F8C0002046FDF77A
:1053800063F90020A0652066012084F85C000020FD
:10539000FCE60000006400400065004010B586B0E7
:1053A0000446142101A8FAF771FF294920688842B0
:1053B0004BD100BF2748806D40F0007025498865BB
:1053C0000846806D00F00070009000BF00BF00BF75
:1053D0000846C06C40F00100C8640846C06C00F08C
:1053E0000100009000BF00BF4FF4C05001900220A8
:1053F000029000200390022004900920059001A94A
:10540000C00600F0B5F901220221152000F062FB70
:10541000152000F04BFB2068406D40F00100216832
:1054200048652068C06D40F001002168C8652068AB
:10543000406D40F40070216848652068D0F8DC00B9
:1054400040F001002168C1F8DC0006B010BD00008A
:10545000006400400010024030B591B004460D4693
:105460001D492068884234D101AB03AA40211B4862
:10547000FFF714FD049828B900208DF83800039830
:105480000D9004E001208DF8380003980D900698E7
:10549000000C8DF839009DF804008DF83A009DF855
:1054A00005100DA8C1719DF8061001729DF8071036
:1054B00041729DF8081081729DF80910C1729DF823
:1054C0000A1001739DF80B1041730DA90448FBF7F6
:1054D00049FD11B030BD0000006400403C080020D0
:1054E000BC19002030B58DB004460D460549206832
:1054F000884205D101AB03AA41210348FFF7CEFC46
:105500000DB030BD006400403C080020014691F819
:105510005C0001280BD1022081F85C0008688069DA
:1055200020F001000A689061002008667047086E4C
:1055300040F0040008660120F8E7704770477047A4
:105540007047704730B58FB005460020009001903D
:105550002A4C0BA92046FBF7EBFC05284CD10B98F5
:105560000290002004909DF83000012802D18007AD
:10557000039001E0002003909DF83100059005980C
:1055800000040590002006900790089009900A906A
:105590009DF832008DF800000BA8C0798DF801004D
:1055A0000BA8007A8DF802000BA8407A8DF8030052
:1055B0000BA8807A8DF804000BA8C07A8DF805003E
:1055C0000BA8007B8DF806000BA8407B8DF8070028
:1055D0006A4602A90A48FFF729FC01280CD10848AD
:1055E000006E00F4007038B105480068806920F052
:1055F00001000349096888610FB030BDC41D002057
:105600003C08002070B50446002500BF28480078FB
:10561000012801D1022070BD01202549087000BF7A
:1056200000204860207800F0010028B1201D07C844
:10563000FDF77AFA00B10125207800F0020020B1D0
:105640002069FDF781F900B10125207800F0040000
:1056500028B1D4E90501FDF7C1F900B10125207891
:1056600000F0080050B1D4E90801884206D0D4E91E
:105670000812E069FDF7B0F800B10125207800F0CC
:10568000200028B1D4E90B01FDF77CF900B1012518
:10569000207800F0100020B1A06AFDF77FF800B17B
:1056A000012500BF00200249087000BF2846B2E76C
:1056B0005407002001200649496941F00041044A8D
:1056C00051611146496901F0004101B10020704764
:1056D0000020024010B50548406940F000600349D1
:1056E00048614FF47A70FDF755FA10BD0020024072
:1056F00001200649496941F08041044A516111463F
:10570000496901F0804101B100207047002002404A
:1057100000200849496901F0804151B10649054A14
:10572000D1600649D1601146496901F0804101B15B
:1057300001207047002002403B2A19087F6E5D4C13
:1057400000200849496901F0004151B10649054A64
:105750009160064991601146496901F0004101B12B
:10576000012070470020024023016745AB89EFCD3F
:1057700078B503460022D0E0012696400D6805EA80
:105780000604002C72D04D68012D08D04D68022D02
:1057900005D04D68112D02D04D68122D13D1986897
:1057A00056000325B540A8435600CD68B5402843B0
:1057B0009860586801259540A8430D79C5F30015F8
:1057C000954028435860D86856000325B540A84343
:1057D00056008D68B5402843D8604D68022D02D030
:1057E0004D68122D13D1D60803F1200555F8260077
:1057F0005507EE0E0F25B540A8435607F60E0D6966
:10580000B5402843D60803F1200545F8260018685E
:1058100056000325B540A8430D7905F00305560051
:10582000B540284318604D6805F08055B5F1805F9C
:1058300072D100BF3C4D2D6E45F001053A4E3566E4
:1058400035462D6E05F00105009500BF00BF4FEAFB
:10585000B635960855F8260095072E0F0F25B5404A
:10586000A843B3F1904F02D100251AE054E02F4D28
:10587000AB4201D1012514E02D4DAB4201D10225EF
:105880000FE02C4DAB4201D103250AE02A4DAB427B
:1058900001D1042505E0294DAB4201D1052500E0E9
:1058A00006259607360FB5402843254D960845F83E
:1058B0002600244D2868A0434D6805F48035B5F5D1
:1058C000803F00D120431F4D28602D1D2868A04334
:1058D0004D6805F40035B5F5003F00D12043194D62
:1058E0002D1D28602D1D2868A0434D6805F48015E6
:1058F000B5F5801F00D12043124D083528602D1DBD
:105900002868A0434D6805F40015B5F5001F00D1C7
:1059100020430C4D0C352860521C0D68D540002DDD
:105920007FF42AAF78BD0000001002400004004858
:1059300000080048000C004800100048001400480F
:105940000800014000040140024613690B400BB1FE
:10595000012000E00020704710B5426921EA0203EF
:1059600002EA010443EA0443836110BD0AB1816184
:1059700000E0816270470000014800687047000045
:1059800048070020034800680349096808440149A2
:1059900008607047480700205007002010B5002419
:1059A0000948006840F4807007490860032000F04F
:1059B000CFF8042000F00AF808B1012401E000F05B
:1059C00031F8204610BD00000020024070B50446AA
:1059D000002511480068D8B10F4800684FF47A716B
:1059E000B1FBF0F00D490968B1FBF0F6304601F06B
:1059F000BBF958B9102C07D200222146501E00F0E6
:105A000069F80748046004E0012502E0012500E090
:105A10000125284670BD0000500700202800002006
:105A20004C07002008B500BF0E48006E40F0010092
:105A30000C4908660846006E00F00100009000BFA7
:105A400000BF00BF0846806D40F080508865084662
:105A5000806D00F08050009000BF00BF00F018F98A
:105A600008BD00000010024010B50146084600289D
:105A700017DB00F01F0301229A400B4B440943F847
:105A8000242000BF00BF00BFBFF34F8F00BF00BF87
:105A900000BF00BF00BF00BFBFF36F8F00BF00BFDC
:105AA00000BF00BF10BD000080E100E001460846D5
:105AB00000280DDB00BF00BF00F01F0301229A4049
:105AC00043099B0003F1E023C3F8002100BF00BF9E
:105AD00000BF70472DE9F05F80460D46164608F07E
