:020000040800F2
:10400000C82A0020F941000811CC000829A900089D
:10401000B5CB0008A14B0008C1F400080000000067
:1040200000000000000000000000000011D900089E
:10403000895A00080000000001D10008E9DA0008F0
:1040400013420008134200081342000813420008FC
:1040500013420008134200081342000813420008EC
:1040600013420008134200081342000813420008DC
:1040700013420008134200081342000813420008CC
:104080001342000813420008854700081342000845
:1040900013420008F15C00081342000813420008B4
:1040A000A5DC0008B9DC0008134200081342000830
:1040B000134200081342000813420008134200088C
:1040C000134200081342000813420008134200087C
:1040D00013420008134200081342000813F40008BA
:1040E000134200081342000813420008134200085C
:1040F0001342000813420008A5DF0008134200081D
:10410000134200081342000813420008134200083B
:10411000134200081342000813420008134200082B
:10412000134200081342000813420008134200081B
:10413000134200081342000813420008134200080B
:104140001342000813420008134200080000000058
:10415000000000000000000000000000000000005F
:1041600000000000000000000000000013420008F2
:1041700013420008134200081342000813420008CB
:1041800013420008134200081342000813420008BB
:104190001342000800000000134200081342000808
:1041A000134200081342000813420008134200089B
:1041B000134200081342000813420008134200088B
:1041C000134200081342000813420008134200087B
:1041D0001342000813420008004000082CEF0000C2
:1041E000DFF810D000F088FA0048004785F7000893
:1041F000AFF30080C82A00200648804706480047E1
:10420000FEE7FEE7FEE7FEE7FEE7FEE7FEE7FEE786
:10421000FEE7FEE789DC0008E14100082DE9F05FD8
:104220000546002092469B46884606468146402425
:104230001BE0284641464746224600F0B8F953465F
:104240005A46C01A914110D311461846224600F032
:104250009FF92D1A67EB01084F46224601200021E5
:1042600000F096F917EB00094E41201EA4F101045D
:10427000DFDC484631462A464346BDE8F09FD2B2CD
:1042800001E000F8012B491EFBD270470022F6E73F
:1042900010B513460A4604461946FFF7F0FF2046BC
:1042A00010BD2DE9FE4F81EA030404F0004421F023
:1042B000004100944FF0000B23F0004350EA01044A
:1042C0005ED052EA03045BD0C3F30A54C1F30A552B
:1042D0002C44A4F2F3340194A0FB0254C1F3130163
:1042E00041F48011C3F3130343F4801301FB024430
:1042F00000FB034E840A970A44EA815447EA835735
:10430000A4FB076802958D0A05FB07854FEA932CED
:1043100004FB0C542705029D4FEA065847EA16375E
:10432000B5EB08056EEB070C870E920E47EA811776
:1043300042EA8312A7FB0201B6EB0B0164EB000417
:104340002B0D43EA0C335E1844EB1C50DA46514601
:10435000E7FB0201C5F313044FEA0B3343EA14539E
:104360004FEA0432019C43EA0603A4F10C040294D0
:10437000009CCDE900B400F070F903B0BDE8F08F07
:1043800000200146F9E72DE9F04D81EA030404F02D
:10439000004B21F0004514464FF0000A23F0004185
:1043A00050EA050220D054EA01021DD0C5F30A5795
:1043B0000246C5F31303C1F31300C1F30A5640F4D8
:1043C000801543F48013A7EB0608101BD64608F2AD
:1043D000FD3873EB050002D308F1010801E09218E3
:1043E0005B41B8F1000F03DA00200146BDE8F08D13
:1043F00000204FF48011064684460EE0171B73EB35
:10440000050705D3121B63EB050306434CEA010CB9
:1044100049084FEA300092185B4150EA0107EDD19C
:1044200052EA030012D082EA040083EA050108433D
:1044300005D0101BAB4106D20122002306E000226A
:104440004FF0004302E06FF0010253101AEB060038
:104450004CEB085110EB0A0041EB0B01BDE8F04DAD
:1044600000F0ECB80EB5C10F80EAE0700844CA074E
:10447000002140F233438DE80E000A460B4600F05F
:10448000ECF803B000BD70B5C1F30A5201F000456D
:104490000024C1F3130140F2FF3341F480119A422A
:1044A00001DA002070BD40F233439A42A2F2334257
:1044B00003DC524200F07BF800E090402C43F1D046
:1044C000404270BDC1F30A5210B5C1F3130140F26E
:1044D000FF3341F480119A4201DA002010BD40F20E
:1044E00033439A42A2F2334203DC524200F05FF8B7
:1044F00010BD904010BD000030B5041E71F10004E5
:1045000004DB4FF00044404264EB0101141E73F1E0
:10451000000405DB1C464FF00043524263EB0403EA
:104520008B4208BF824230BD30B5041E71F10004D9
:1045300004DB4FF00044404264EB0101141E73F1B0
:10454000000405DB1C464FF00043524263EB0403BA
:10455000994208BF904230BD01F0004330B421F0D1
:10456000004150EA010206D00A0DA2F56072C1F3C3
:104570001301002A02DC30BC00207047440F44EADB
:10458000C104C100E01830BC00EBC25000F01FB8FD
:10459000202A04DB203A00FA02F100207047914003
:1045A000C2F1200320FA03F3194390407047202AF8
:1045B00004DB203A21FA02F00021704721FA02F3CD
:1045C000D040C2F1200291400843194670470029AB
:1045D000A8BF7047401C490008BF20F00100704789
:1045E00010B4B0FA80FC00FA0CF050EA010404BFE9
:1045F00010BC704749B1CCF1200421FA04F411FA3F
:104600000CF118BF012121430843A3EB0C01CB1D82
:104610004FEA00614FEA102042BF002010BC7047F3
:1046200000EBC35010440029A4BF10BC7047401CCD
:10463000490008BF20F0010010BC704710B5141EDF
:1046400073F1000408DA401C41F1000192185B414B
:104650001A4301D120F0010010BD2DE9F04D924622
:104660009B4611B1B1FA81F202E0B0FA80F2203239
:104670009046FFF78DFF04460F4640EA0A0041EAE4
:104680000B0153465A46084313D0114653EA010022
:1046900019D0C8F140025046FFF789FF05460E4683
:1046A000504659464246FFF773FF084305D00120A4
:1046B00004E020463946BDE8F08D0020054346EA77
:1046C000E0762C4337430A986305E40AA0EB080020
:1046D0000022FD0A44EA47540A3002D50020014670
:1046E000E9E7010510196941DDE90845001969414B
:1046F000BDE8F04DA2E70000064C074D06E0E0687B
:1047000040F0010394E8070098471034AC42F6D318
:10471000FFF76AFD542A0108742A010870B58C1845
:1047200010F8015B15F0070301D110F8013B2A11C5
:1047300006D110F8012B03E010F8016B01F8016BB2
:104740005B1EF9D12B0705D40023521E0DD401F8AE
:10475000013BFAE710F8013BCB1A921C03E013F877
:10476000015B01F8015B521EF9D5A142D8D30020AC
:1047700070BD000080FB01014FEA106000EB0120DA
:10478000704700004FF0A0400168C1F3801100297C
:1047900010D040210160826807490A40121D8260E2
:1047A000064A90680840001D9060054882680A40EB
:1047B000121D826070470000C0FFFF7F00010050A3
:1047C0000004005010B5846AE16D11F0500F06D05E
:1047D000E16DC90625D5204602F092FE10BDE06DC0
:1047E00040F40070E06520680168090716D507F0FD
:1047F0007DFA78B12068C068800400280ADBE06D8B
:1048000020F48070E065E06DC00403D4E06D40F0FA
:104810000100E065204602F071FE10BDC06880070F
:10482000EBE7616D496BBDE81040084710B5806A41
:10483000C16D41F04001C165016E41F004010166A6
:1048400002F05EFE10BD10B5806A02F058FE10BD89
:1048500070B50446006881688268C1F3400112F0B7
:10486000010F24D019BB816801F00D01012910D17D
:104870008168104A1140891C81602168032008600A
:1048800003F0B8FF05460EE003F0B4FF401B02281A
:1048900009D9E06D40F01000E065206E40F00100A5
:1048A0002066012070BD20688068C007ECD1002020
:1048B00070BD0000C0FFFF7F70B5044600688168CE
:1048C00011F0010F28D18168144A114215D1816875
:1048D000D5432940491C816003F08CFF064616E051
:1048E000816811F0010F03D181682940491C816062
:1048F00003F080FF801B022809D9E06D40F0100012
:10490000E065206E40F001002066012070BD206847
:104910000168C943C907E3D1002070BD3F00008092
:10492000024A02EB4000427841707047F8120020C2
:1049300070B50446B0F912003C4E0025401C052815
:104940000ED2DFE800F06A03122E5700FA206560ED
:104950002081A0816081A08A402802D0401CA082D2
:1049600070BD01206082A58270BD20880128FBD126
:104970002B2007F08FFC2E48818A41F480718182C0
:10498000B6F8DA016080616808446060A18A491C59
:1049900089B2A1824029E7D1A5828009A0810220A5
:1049A00018E02088012817D0A08A401C80B2A0827D
:1049B000C828D9D9A0894FF0FF31A0F1C902632AD4
:1049C00016D22289121A642A12DB6289801A64289C
:1049D0000EDB0320608270BDB6F8DA016080618969
:1049E000884200D2608121898842F4D9208170BD3B
:1049F000618270BD61895C2008F0CCFF21895D2057
:104A000008F0C8FFA1895E2008F0C4FF042060827E
:104A1000BDE870402B2007F021BC2B2007F01EFCC6
:104A2000BDE870402C2007F035BC00007813002052
:104A3000681F002010B58EB072B634216846FFF7AB
:104A400025FC4E4C206AC0F30220042812D003F04B
:104A5000C7FD03F073FD0420009001200590800243
:104A60000690684603F090FC03F04EFD03F058FDFD
:104A700003F03CFD206AC0B2AA2810D103F0B0FDBB
:104A800003F05CFD02200090BB200490684603F018
:104A90007BFC03F039FD03F043FD03F027FD07F035
:104AA00009FE3748816C41F004018164816C01F09A
:104AB00004010091816C41F001018164806C00F07F
:104AC0000100009007F01EFC07F0D6FC07F0A4FEE2
:104AD00007F0CAFE07F064FF07F0BAFF07F0F0FF27
:104AE00007F056FD274C0020CDE900404FF4C86088
:104AF00002900390684603F083FE4AF6AA202060E5
:104B000008F016F8204803F059FB7F211F4801F0F8
:104B1000C7FD7F211E4801F0C3FD7F211D4801F024
:104B2000BFFD19480021FC3005F026F91648042184
:104B3000FC3005F021F90021174805F01DF904218A
:104B4000154805F019F9104864300068C16841F053
:104B50000101C16010490622DC310C4802F0E4FE7C
:104B60000D490422F4310A4802F0DEFE0EB00222A2
:104B7000BDE810400949074802F0D6BE00200240B7
:104B80000010024000300040C8070020140A002036
:104B9000A00B00200C0C00201009002008000020B1
:104BA000FEE7000070B590B0002506460D95152073
:104BB0000E9503F0B1FE2E4803F098F82C4C032814
:104BC00047D120688069C00743D16946304600F06C
:104BD00051F8052845D10098069504909DF80400E9
:104BE000012832D0CDF814509DF805000DAA00041C
:104BF000CDE907050B959DF806008DF834009DF86A
:104C000007000C958DF835009DF808008DF83600EA
:104C10009DF809008DF8370009959DF80A008DF878
:104C200038009DF80B008DF839009DF80C008DF8C8
:104C30003A009DF80D008DF83B000A9504A90C4838
:104C400002F0B4FF012804D00BE04FF08040059043
:104C5000CAE720688169C90703D0816921F0010191
:104C60008161152003F069FE10B0012070BD0000C5
:104C7000C807002030B5D0E900329A420ED000EBD0
:104C8000021208323CCA81E83C004168491C41607C
:104C9000402901D300214160052030BD032030BDF3
:104CA00070B502681346521C402A00D300224468A3
:104CB000944208D072C900EB0313083383E87200F2
:104CC0000260042070BD022070BD000030B5017983
:104CD000012281B9314903681BB30024B3F5067F73
:104CE00023D0B3F5467F33D0B3F5836F43D0A3F51C
:104CF000C0652C3D02D00022104630BD83790B7672
:104D0000C3794B76037A8B76437ACB76837A0B77AB
:104D1000C37A4B77037B8B77407BC87781F823403E
:104D2000EAE78079A1F86800E6E783790B70C37938
:104D30004B70037A8B70437ACB70837A0B71C37A92
:104D40004B71037B8B71407BC87181F82040D3E7A6
:104D500083790B72C3794B72037A8B72437ACB726D
:104D6000837A0B73C37A4B73037B8B73407BC8735B
:104D700081F82140C0E783790B74C3794B74037ABF
:104D80008B74437ACB74837A0B75C37A4B75037B30
:104D90008B75407BC87581F82240ADE75822002012
:104DA0002DE9F05FD74900242DED068B5020A1F8A6
:104DB0000E41A1F8FA00D44A40F2E730A1F804010C
:104DC000D38B8B82D5894FF6FF7000EA85060E8360
:104DD0001579994605F001074F838C832127CF83EE
:104DE00042270F8463274F848C841E24CC843C2468
:104DF0000C855A244C85B2F8144104EBC40707EB28
:104E0000041400EA8404A1F86040B2F8584004EBAE
:104E1000C40707EB041400EAC404A1F85440B2F834
:104E20005A4004EB840400EA4404A1F85640B2F866
:104E30005C40A1F85A40B2F85E40A1F85C40B2F87C
:104E4000624004EB4407C7EBC41400EAC400A1F8B5
:104E50008800B2F86400A1F84E00B2F870C0A1F862
:104E600010C0B2F8760048828646C5F34000A1F82B
:104E7000800057898F800120C880B2F88E405C4343
:104E8000642394FBF3F3A1F87030B2F89030A1F8EA
:104E90004830B2F89230A1F84A30B2F89440A1F804
:104EA0004C409C4201D2A1F84C30974A95494CF2B3
:104EB0005034B2F8AC300B86B2F8AE308B86B2F814
:104EC000B0304B86B2F8AA30CB854CF250338B60B1
:104ED000938C634347F6FF7493FBF4F5CD60B2F80F
:104EE0001831A1F88A309B46B2F81631A1F88C30FF
:104EF0009A4632F8743BA1F88E30B2F8DE30A1F851
:104F00009030002381F87A3092F89C30A1F5A87493
:104F1000C3F34008A4F8B280C3F38008A1F87680F8
:104F2000C3F34018A1F87C80C3F38018A1F88280F5
:104F3000C3F3C01381F884303C21B6FBF1F3A4F82D
:104F40000E316786E086638F23F4405343EA0733CC
:104F500023F4404343F480436387D28F40F6E44315
:104F60001203B2FBF3F2A4F8102109FB06F292FB44
:104F7000F1F1A16591FBFCF12167012900DA2067BD
:104F8000624A6049B2FBFCF3E364012B00DAE0649F
:104F9000B2FBFEF22265012A00DA20650022A1F8A8
:104FA0007420A1F87220A1F8D420A1F8D620A1F88D
:104FB000D20006FB0AF696FBFBF04FF4B47690FBAA
:104FC000F6F303EB8307A1F8D8204FF6FF73A1F89F
:104FD000DA2003EA4703C863C866A1F88630C3171E
:104FE00000EB937343F38F0300EBD077A4F81431F5
:104FF0007F108F63444FC3F10008B7F920C1C44547
:1050000004DD9C4502DAA4F824C101E0A4F82421BF
:10501000B7F88230A1F85030B7F8F430A1F8523028
:10502000B7F92231584390FBF6F0C4F82801002B61
:1050300002DDC4F82C3101E0C4F82C2140F6C55241
:1050400088460A64798A40F6B8326943B1FBF2F1C6
:10505000C8F84410B7F81A01A4F83201B7F81C01D7
:10506000A4F83401B7F81E01A4F836019FED2E0B09
:105070009FED27AB9FED289B9FED298B51EC100BEB
:105080008E34FFF700FA06B2A6807042E080284610
:10509000FFF7E8F953EC1A2BFFF703F953EC192B40
:1050A000FFF7FFF853EC182BFFF76DF9FFF7EBF95B
:1050B00000B224F88E09B04201DDA4F88E6034F805
:1050C0008E0F404260801A48C4F8AA001948C4F8FC
:1050D000AE0097F80C0198F89E21430860F3000297
:1050E00063F34102830863F38202C30863F3C302DC
:1050F000000960F3041288F89E21BDEC068BBDE820
:10510000F09F0000B82000207813002088C93500E7
:10511000666666666666EE3F000000000000B0400E
:105120000000000018FB1441B011FF1AF1AF8140DC
:1051300050CF5400BFC22C002DE9F0414C4D070068
:105140000E46484A484BDFF824E1A888494C4FF006
:10515000000106D0012F17D0022F3FD0032F55D0CA
:1051600071E0DFF814C10228CCF80010DFF80CC1A0
:10517000CCF8001001D0032803D111601960CEF8DB
:10518000001001F0A5F95EE0022801D0032803D148
:1051900011601960CEF8001016B1012E14D052E043
:1051A0002A8B616A51433C2291FBF2F1A26D8A4243
:1051B00002DB52428A4200DD1146A166022801D07C
:1051C000032840D161673EE001F082F9A8880228F7
:1051D00001D0032837D1A06E606734E086BBA06A97
:1051E000E968814202D34942814200D908462449F4
:1051F000000390FBF1F04FF49661884202DC4942D3
:10520000884200DA0846A4F86C001CE0C6B9E06ADF
:10521000642801DD642004E06FF06301884200DA55
:10522000084640F6C5514843642190FBF1F040F632
:10523000C551884202DC4942884202DAA4F848108B
:1052400001E0A4F84800AF80EE80608F20F4405069
:1052500040EA073020F4404040EA86306087BDE8ED
:10526000F081000000070020FC060020F806002066
:10527000B8200020681F0020F0060020F40600205F
:10528000C63E05002DE9F05F002600F07FFFCF4C01
:10529000DFF83CA3CF4D208F01281BD1207CC00715
:1052A00018D0B5F90400002802DD401EA88003E0F4
:1052B000DAF8D010C64888474FF40051C64803F0CA
:1052C00087FAA4F8AE00B4F8AC10DFF8109301220E
:1052D00019B165E04FF47A50E8E7C149B1F900C06F
:1052E000BCF1000F5CD0B9F87C800327B8F1010F46
:1052F0000DD0B4F9B030984252D0B4F9B4304FF078
:10530000020803B3012B31D0022B38D048E0B4F9A6
:10531000B0C0604501D0012803D0604540D040B105
:105320003EE0B9F88230012B07D1216EC4F8181184
:1053300036E0B9F88230012BF7D1236EC4F81C3166
:10534000D4F818C11DE0236EC4F81831A4F8B420B5
:10535000A4F8B600BCF1010F03D0BCF1020F03D0DA
:105360001EE0A1F800801BE00A8019E0B4F9B63015
:10537000984215D0236EC4F81C31A4F8B480D4E947
:1053800046C3A3EB0C03C4F82031B4F924C103EBEA
:10539000D3730CEB63032366E3650F80A4F8AC20A2
:1053A000A4F8B000BAF80800BAF80610D446401ABB
:1053B0008C4900B2098800297BD0218F51B1B4F902
:1053C0004400002802DDA0F10100F0E03CDA00F129
:1053D0000100ECE0B9F80480834B844F49464FF05C
:1053E000000A40F6C55BB8F1020F1CD0B9F84211B3
:1053F00020296FD085F800A0B4F98E20B4F9901060
:10540000BCF90CC040F6A748C44575DDA18A41F43B
:105410000051A182A5F802A0D4F8E010002961DDB6
:10542000B4F98E1061E0B4F96C205AB1A2EB00001F
:10543000B4F94420D946DFF8B8A14A4505DB002875
:105440001ADB06E0A4F844A0B3E0524514DC0028BF
:1054500012DC31F85A5FEE081D688988A0EB050C54
:1054600006FB0CF6D7F800C08444ACEB050CACEBA3
:10547000050501FB056117E031F85A5FD7F8008098
:10548000EE081D688044A0EB050C06FB0CF6B1F895
:1054900004C0A8EB05084988A8EB05050CFB0565C9
:1054A000C908414305EBE101B1F5806F02D38912D0
:1054B00003E089E0002900DD01211D683D601860DE
:1054C0005018484501DD484671E050456FDA5046B6
:1054D0006DE0FFE72A70B4F98E104A10B4F990100D
:1054E00049108DE705DAB4F990104A10491011E01F
:1054F00002E0002211460DE0B5F802C0BCF1640FD5
:1055000004D9A58A25F40055A58203E00CF1010C0D
:10551000A5F802C0904201DC884216DAA5899042C3
:1055200045F00805A58101DD161A02E0884200DA7F
:105530000E1AB9F85A00196839601E608008B4F96B
:105540004410704301EB202005E0A189B4F9440028
:1055500021F00801A181274AB2F9C611002905DA14
:10556000B2F9C821002A06DA494205E003DDB2F9A2
:10557000C821002A00DC0021B9F814308A0292FB0D
:10558000F3F2D9F8443049461A4440F6C5535A4319
:105590009312C9F840305B4501DDC1F840B0D9F83D
:1055A0004010814202DB4942814200DD0846A4F8F6
:1055B0004400B4F94400A4F84600217CC90703D094
:1055C000BDE8F05F07F086BFBDE8F09F681F0020D0
:1055D000901E00201007002000080048B82000207E
:1055E000E6060020E406002004070020080700204B
:1055F0003BF2FFFF781300202DE9F05F04460921FC
:10560000564801F047FBA0850921554801F042FBAF
:1056100060855448DFF854B10188A4F844108288AA
:1056200012B2A4F84C209246028917B2E78682890A
:1056300016B2A686028A12B2A4F84A20838A4A4881
:105640009146A4F85230028822878588A587B0F851
:1056500008C00FFA8CFCA4F83AC0808900B2E08739
:10566000BBF80080A4F88480BBF80480A4F888808C
:10567000B4F90C80A7EB0807D4F85C804744E765D1
:105680003F11A781B4F90A70F61BA76D3E44A665C9
:1056900036116681E2816582B4F91020656EACEB4B
:1056A00002022A44626612112282B4F91420801A7E
:1056B000E26E1044E0660011A08223856183B4F994
:1056C0002000E26FA9EB00001044E0678011208405
:1056D000B4F92200D4F88020AAEB00001044C4F8EA
:1056E0008000801160842248A0F8F01021480288D0
:1056F00040F6C5518A4202D3A18D618504E04288FB
:105700008A4201D3618DA1851B49096801801A492C
:10571000091D09684180608DB4F89C10401AE08032
:10572000A08DB4F8A410401A2081B4F98400B4F913
:105730008A10401A54F8901F084444F828090011B0
:105740006084B4F91E00B4F92410401AE16A0844D8
:10575000E0620011A084BDE8F09F0000140A002060
:10576000A00B0020EC090020040A00200800002003
:10577000B8200020DC060020342C0140B0F92A10AB
:10578000B0F99C20891A50F8A02F114440F838191C
:105790000912818630F93C1CB0F93C20891A426C10
:1057A000114441640912818770470021C180018141
:1057B000418581854FF4FE62A0F89C20A0F8A420CA
:1057C0001202C0F8A020C0F8AC208181C186A0F8E8
:1057D000B010C0F8B41041818186A0F8B810C0F8AC
:1057E000BC10C181C182018341838183C183018453
:1057F00041848184C184C165816501660167416717
:105800008167C167C0F880100187A0F84010A0F838
:105810004210A0F84410A0F84610A0F84810A0F8D4
:105820004A10A0F84C10A0F84E10A0F8501020F824
:10583000141B20F8121C20F8101C70470D49026838
:105840008A4201D20C4901E00B492031D2B2142323
:10585000083AB2FBF3F2436C02F01F0223F0030399
:105860001944816404498031C1640121914001657A
:105870007047000008040240000802400179074A0E
:1058800002EB81024265054A4432491E826501F0FD
:105890001F0201219140C16570470000FC080240D1
:1058A00030B5D0E913456560446D14B1D0E91645B3
:1058B000656090F8444004F01F050124AC40056C7D
:1058C0006C60046863608368102B036803D0996080
:1058D0000068C26030BD9A600068C16030BD0000E1
:1058E0002DE9F0475F4E604F41F64C512DED028B94
:1058F000D6F8DC005D4C4843398B5D4D90FBF1F0F0
:10590000A4F8C6018146B06E6036C0EB001080007E
:1059100090FBF1F0A4F8C801B5F90600B5F908103C
:1059200004F5E374401AFEF79DFD41EC100B09F0FD
:10593000B7FE51EC100BFEF7A6FD4E494843C117C8
:1059400000EB11504FF4FA7101EB2030490090FB4D
:10595000F1F0A080B7F818012081B5F90C0000EB38
:105960004010FEF77FFD9FED448B53EC182BFEF7A4
:105970000AFDFEF7A7FD6081B5F90A0000EB4010B3
:10598000FEF770FD53EC182BFEF7FDFCFEF79AFDB9
:10599000A081B5F90E0000EB4010FEF763FD9FED0E
:1059A000388B53EC182BFEF77CFCFEF78BFDE08266
:1059B0003068B6F9C410824608444FF46161484328
:1059C000F96B90FBF1F020828046B7F84201E08647
:1059D000708B6082B08DA082B6F8D0002086B5F9B9
:1059E000200000EB4010FEF73DFD53EC182BFEF7B6
:1059F00058FCFEF767FD6084B5F9220000EB40100B
:105A0000FEF730FD53EC182BFEF74BFCFEF75AFD6A
:105A1000A084A4F82EA036F8260CA086288A962109
:105A200010FB01F0C11700EB1150000B24F8600CC3
:105A3000A88A962110FB01F0C11700EB1150000B52
:105A400024F85E0C4FEA182087F85A0187F85B812A
:105A50004FEA192087F85C0187F85D91BDEC028B55
:105A6000BDE8F087681F0020B820002078130020D0
:105A7000901E0020C63E05000AD7A3703D0A67406D
:105A8000000000000000403F704700002DE9F8438F
:105A900000240E46804625466946404600F048F8F8
:105AA000012817D0641CA4B2012C0BD0BDF8001043
:105AB000B9420AD06D1C0024ADB2032DECD30120F5
:105AC00089B209E0BDF80070E6E7032CE4D3318029
:105AD000BDE8F883BDF80010318003494A8B42F4D9
:105AE00080524A83F4E70000681F0020F8B50D4695
:105AF000064600242946304600F072F801280ED0F0
:105B00006946304600F014F8012808D0BDF80010AE
:105B1000A94209D0641CA4B2032CEBD30120034991
:105B20004A8B42F480524A83F8BD0000681F00206F
:105B30002DE9FF41284F0D4604464FF0000842462C
:105B40000421384602F051FE1420401EFDD10122EE
:105B50000421384602F049FE44F4C060C1088DF8C3
:105B6000041040018DF8050000248DF806404FF424
:105B7000FA768DF80740022303AA01A91748009678
:105B800003F0F8FC8DF804408DF80540022302AACA
:105B900001A91248009603F0EDFC002204213846CA
:105BA00002F023FE9DF80D009DF80810000140EA68
:105BB00011104FF6FF7101EA002028809DF80810AF
:105BC0009DF80920090141EA1211C9B20143298057
:105BD00004B04046BDE8F081000C00486407002096
:105BE0002DE9FE4F3E4D0E4607464FF0000A524645
:105BF0000421284602F0F9FD1420401EFDD10122A7
:105C00000421284602F0F1FD4FF004098DF80490BC
:105C1000C0208DF805004FF4FA78022302AA01A9EA
:105C20003048CDF8008003F0A5FC0022042128466E
:105C300002F0DBFD13242046401EFDD10122042189
:105C4000284602F0D2FD052040EA17208DF8040016
:105C50008DF805704746022302AA01A92148CDF814
:105C6000008003F087FC300A8DF804008DF8056091
:105C7000022302AA01A91B48009703F07BFC002223
:105C80000421284602F0B1FD2046401EFDD101222C
:105C90000421284602F0A9FD1349491EFDD1002226
:105CA0000421284602F0A1FD641EFDD10122042139
:105CB000284602F09AFD8DF8049000208DF805002A
:105CC000022302AA01A90748009703F053FC00220F
:105CD0000421284602F089FD5046BDE8FE8F0000F1
:105CE000000C004864070020EF49020072B6FEE78E
:105CF000014802F002B80000C8070020F0B5D1E961
:105D000001650C692C430D68BEB145F080452C43FC
:105D1000D1E90665354391F820704E69406D46EA39
:105D200007663543CE6803EBC303354300EBC3007E
:105D30000023E0E802450C4D0FE044EA8544E7E724
:105D4000D418D65CE77846EA0766A77864783F04FB
:105D500047EA0424264340C01B1DCC6805EB1444CD
:105D600024789C42ECD8F0BD70FB0008124A117FE9
:105D70001248012901D003290BD1036843F40063C1
:105D80000360036823F400630360036843F4007353
:105D90000360022901D003290BD1016841F480512D
:105DA0000160016821F480510160016841F4806163
:105DB000016000201077704728000020002002407A
:105DC0000C490A6A520210D5C20703D04A6942F050
:105DD00004024A61800703D5486940F400404861E5
:105DE000486940F4803048617047486948F20402CD
:105DF0001043F4E7002002402DE9F04106464FF43D
:105E00007A7714460D46384600F04EF9002870D1D6
:105E1000394800684FF6FF7CC20538484FF400232C
:105E20004FF00061028806D4624501D01004830956
:105E300001EB530206E0624501D0100483090A46D3
:105E400001EB53012E48036A5FEA432C06F003037B
:105E500020D4A5F10065A4F1006429092209012BD1
:105E600002D0022B0BD037E0436A6FF30E030B43D3
:105E70004362816A6FF30E01114381622CE0436C2F
:105E80006FF30E030B434364816C6FF30E011143F8
:105E9000816421E0012B02D0022B0FD01CE0436A69
:105EA0006A1A6FF30E0343EAD2034362826A611AED
:105EB0006FF30E0242EAD10282620DE0436CA91A2E
:105EC0006FF30E0343EAD1034364A11A826C6FF3AC
:105ED0000E0242EAD1028264816A61F31E06866282
:105EE000416941F4003141613846BDE8F04100F0BC
:105EF000DBB8BDE8F081000000000140E075FF1F45
:105F0000002002402DE9F041074600244FF47A7842
:105F10000E462546404600F0C7F800287CD1F80719
:105F200003D006F4E0644FF4E065B80704D506F446
:105F30008050044345F48055780704D506F400509A
:105F4000044345F40055F80404D506F480400443A6
:105F500045F48045380704D506F48030044345F401
:105F60008035F80604D506F40030044345F40035C6
:105F7000B80604D506F48020044345F4802578064D
:105F800004D506F40020044345F40025380604D562
:105F900006F48010044345F48015B80504D506F4D2
:105FA0000000044345F40005780504D506F0807030
:105FB000044345F08075380504D506F000700443AD
:105FC00045F00075B80404D506F08060044345F040
:105FD0008065780404D506F00060044345F0006550
:105FE000380404D506F04050044345F04055F8030A
:105FF00004D506F08040044345F080450748016A17
:10600000A94321430162416941F4003141614046A5
:10601000BDE8F04100F048B8BDE8F0810020024042
:106020000E4A136A5B0201D5C90703D0516921F4F6
:10603000006102E0516941F4006151615169C0B2EF
:1060400021F47E7141EAC0005061506940F00200C5
:106050005061506940F48030506170470020024028
:10606000054910B54C6944F001044C610260BFF36E
:106070006F8F436010BD000000200240094A10B538
:106080005469402344F480245461EFF3108272B6C3
:1060900010C95B1E10C013F0FF03F9D182F3108802
:1060A00010BD00000020024070B5064602F0A2FBC1
:1060B0000546134C07E000BF02F09CFB401BB042BA
:1060C00001D9032070BD2069C003F5D420694CF2CA
:1060D000FA3108400CD00B494A6802434A60010F6C
:1060E00001D0A169A161010100D02061012070BD32
:1060F0002069C00701D001202061002070BD000090
:10610000002002402800002010B51E4C207BC10753
:106110001D4805D0B0F90610002901DD491EC180D7
:10612000E189C9052DD4217CC9072AD0C18800295D
:1061300027D12168490300D549426268520300D53E
:106140005242914200DA1146D4F838218A4211DCD9
:106150008188491C8180B0F90400032811DB07F015
:10616000A3F9E08940F48070E081BDE810400C2084
:1061700006F090B8B0F90410002902DD8188491EAC
:10618000818010BD681F0020DC06002010B5084C7F
:106190002046D4F8CC1088470648B4F906100160B0
:1061A000B4F908104160BDE81040FFF7ADBF000032
:1061B000901E0020681F00202DE9F047B048B14C28
:1061C0002DED028BB0F92200C4F88000D4F88410C1
:1061D000401AD4F888100844C4F88800001100EB75
:1061E000401101EB8101052202EB410100EE101A82
:1061F000F8EEC00A9FEDA40AC4F8840000EB40103A
:1062000020EE808A401D00EE900AA04E0025F8EE98
:10621000E00A012720EE800ABCEEC00A10EE100A48
:10622000A4F88C00F08DDFED9A8ADFF868824FF0D9
:10623000FF39790270B101287DD002284FF00002A9
:10624000404679D002F0D1FA00220421404602F003
:10625000CCFA81E00122404602F0C7FA0122042173
:10626000404602F0C2FA728EB4F81001B38E1118D3
:10627000101A89B280B2934226D900EE101AB8EEF5
:10628000400AB4EEC08AF1EE10FA09DD00EE101AF1
:10629000581AB8EE400A38EE400A60EE280A49E083
:1062A00000EE100AB8EE400AB4EEC08AF1EE10FA21
:1062B00052D200EE100A318EB8EE400A401A30EE8B
:1062C000480A60EE280A14E0368E964249D900EE5C
:1062D000101AB8EE400AB4EEC08AF1EE10FA17DDDB
:1062E00000EE101A701AB8EE400A38EE400A60EE5E
:1062F000280A00EE100AB8EEC00A80EE801ABDEE41
:10630000C10A10EE100AA4F87A00A4F87E90ABE05F
:1063100000EE100AB8EE400AB4EEC08AF1EE10FAB0
:106320001AD200EE100AC01AB8EE400A30EE480A3F
:1063300060EE280A01E024E064E000EE100AB8EE06
:10634000C00A80EE801ABDEEC10A10EE100AA4F851
:106350007A00A4F87E7087E0A4F87A50A4F87E5002
:1063600082E04D49A4F87A50A4F87E50088BB0F52D
:10637000167F02D2401C088376E0082005F08AFFD1
:1063800072E00122404602F030FA01220421404628
:1063900002F02BFA308E00EE100AB8EE400AB4EE8E
:1063A000C80AF1EE10FA1BD200EE100AB18EB8EE58
:1063B000400A081A00EE900A38EE400AF8EEE00AA9
:1063C00020EE280A80EE201ABDEEC10A10EE100A57
:1063D000A4F87A00A6F8D850182005F0EFFB43E0A7
:1063E000A4F87A502D4D95F8280128B92C48B0F81A
:1063F0008010182007F00EFB95F82901A0B3A6F82D
:10640000D87031E002F0F1F900220421404602F098
:10641000ECF92448006802B22248A4F8302124385C
:10642000002A08DBA4F87E70B4F934118A4210DD2A
:1064300008F016F80DE0A4F87E90B4F93611494240
:106440008A4201DA08F00CF8B4F830014042A4F8AE
:106450003001B4F83001642110FB01F0B4F93211BD
:1064600090FBF1F0A4F87A00B4F97A00642802DD18
:106470006420A4F87A00BDEC028BBDE8F087000030
:10648000901E0020681F00200000003AB820002065
:106490000000C842000400481007002098100020A7
:1064A000781300202408004002460020012907D06C
:1064B000022907D0032907D0042900D1100E704704
:1064C000D0B27047100A00E0100CC0B27047000054
:1064D0002DE9F041464D474E2846AA88C388464CD0
:1064E0007AB12146642731F97A0F012AB1F90410F3
:1064F00024D0022A4AD0032A62D001202087BDE896
:10650000F081012B17D0B6F94400E96B41434FF4F9
:10651000616091FBF0F0A96B814202DB494281424C
:1065200000DD0846E065B5F880000028E7D0E06DA2
:106530004042E065E3E708F0C5FFF3E72C4A4FF07F
:106540003C0C012B128B12D0B6F94200504390FB49
:10655000FCF000BFB5F8801001B14042A16D81424E
:1065600002DB4942814200DD0846A066C7E7AB8AEC
:10657000434393FBF7F0424392FBFCF00129E9D03F
:10658000491C01D00020E5E74042E3E7EA684243C6
:10659000B2FBF7F00003194A012990FBF2F004D096
:1065A000491C01D0002008E040424FF49661884227
:1065B00002DC4942884200DA0846A4F86C009EE7F3
:1065C00040F6C55210FB02F090FBF7F05342012950
:1065D00004D0491C01D0002007E04042904201DD78
:1065E000104602E0984200DA1846A4F8480086E710
:1065F000B820002058220020681F0020C63E050059
:10660000002229B90020704710F8013B1A44D2B289
:10661000491E89B2F8D210467047000070B50C468A
:10662000054606F0F7FA00261B4A2E70042020705B
:10663000D2F81200194B410623D583F87C01107C57
:1066400002EBC01090F85500C0F3C2012970D2F8D7
:1066500012108D0614D583F86711D17B02EBC1119E
:1066600091F855104A0703D04207B2EB417F06D09C
:1066700000F00700052802D0C1F3C20009E026702F
:1066800070BD8106FCD583F8670193F86201C0F301
:10669000C200207070BD0000780C0020B8200020DF
:1066A000F8B500260446009690F858000D460128DB
:1066B0000BD0012084F858002046FEF7C9F80100ED
:1066C000E06D04D040F010002AE00220F8BD20F474
:1066D000885040F00200E06520688268134B1A4041
:1066E00005F080431A4342F000428260104A20685D
:1066F0000EE0009B5B1C0093934209D3E06D20F0F9
:10670000020040F01000E06584F858600120F8BDF8
:106710008368DB0FEDD1E06D20F0020040F0010056
:10672000E06584F858600846F8BD0000C0FFFF3FF0
:1067300002DE04002DE9F84F4FF000090446CDF8C1
:1067400000900D4694F85820DFF8EC8361694F46BD
:106750004846012A0AD00126F84A84F8586041B117
:10676000296A012905D0A36EEBB129E00220BDE81A
:10677000F88F6868092838D1A96A4FF4785041B178
:106780002B6801F07C0100EA53400843E96A0843A2
:1067900002E0296800EA51402168CB6C13400343B2
:1067A000CB64606621E0C4E91971A96A286A31B135
:1067B00001F07C01401E0843E96A084300E0401EE6
:1067C00029682B79C1F3846103F01F0399400143C9
:1067D000A06E401EA066636E43EA0103636604D1A7
:1067E0002168C86C10401843C864206805F072FA2C
:1067F00058B995F8250098B12068C16895F8262009
:1068000021F4401141EA4251C160206805F06AFA62
:106810008246206805F05EFA5AEA00000DD0FBE0DF
:1068200095F8260095F82410400540EA01512068AB
:10683000C26822F440121143E6E7A86A30B1E86A60
:1068400020B195F8250001285ED003E095F82500D9
:10685000012804D02068C16821F0007103E020689D
:10686000C16841F00071C16095F83000012852D034
:106870002068016921F002010161AA682968206885
:10688000B2F1004F38D005F048FA2068416921F094
:106890000041416120686969C268C2F3C1025200C7
:1068A00091402A69042A44D000EB82002B68026ED2
:1068B000DFF88CC203F0F84302EA0C020B431A43E0
:1068C00042F00041016622682869A96902EB800054
:1068D000026E22F080720A430266297F20682A69CC
:1068E000012923D05FF0000100EB8200026E22F04C
:1068F00000720A4302668FE0002205F00EFA20685B
:10690000416941F00041C4E7E06D40F02000E065DE
:106910004FF00109A8E7D5E90D100143206802698D
:1069200022F4FF7242F002021143A5E74FF000711A
:10693000DAE7002105F0C4F9400320684FF00001B8
:1069400072D005F0BDF990FAA0F0B0FA80F1286895
:1069500042036ED090FAA0F0B0FA80F0814204D1E8
:1069600000221146206805F0EFF90121206805F0AA
:10697000A7F9400320684FF001015DD005F0A0F9B0
:1069800090FAA0F0B0FA80F12868420359D090FA4A
:10699000A0F0B0FA80F0814204D1002201212068E9
:1069A00005F0D2F90221206805F08AF94003206839
:1069B0004FF0020148D005F083F990FAA0F0B0FA48
:1069C00080F12868420344D090FAA0F0B0FA80F039
:1069D000814204D100220221206805F0B5F903218B
:1069E000206805F06DF9400320684FF0030133D0B3
:1069F00005F066F990FAA0F0B0FA80F12868420339
:106A00002FD090FAA0F0B0FA80F0814204D1002299
:106A10000321206805F098F92068816811F0010FC2
:106A200022D0B6E000E004E005F04AF9C0F384614A
:106A30008DE7C0F3846091E705F042F9C0F384610B
:106A4000A2E7C0F38460A6E705F03AF9C0F38461D9
:106A5000B7E7C0F38460BBE705F032F9C0F38461A7
:106A6000CCE7C0F38460D0E72B7B296850F8B02FC7
:106A7000C1F3120C22EA0C0203F0180C314B23FA7A
:106A80000CF30B401A430260E96841457ED1286847
:106A900041031CD090FAA0F1B1FA81F1491C01F038
:106AA0001F0109294FEA403132D8002912D000BF16
:106AB00090FAA0F1B1FA81F101F1010101F01F0199
:106AC00006FA01F609D100BFC0F3846109E0C0F302
:106AD0008461E3E7C0F38461EEE790FAA0F1B1FAD4
:106AE00081F101F1010101F01F0146EA816102D14A
:106AF000C0F3846003E090FAA0F0B0FA80F000F1F7
:106B0000010000F01F0000EB400041EA00513AE0B4
:106B100000290ED090FAA0F1B1FA81F101F1010142
:106B200001F01F0106FA01F60ED100BFC0F3846127
:106B30000EE0C0F38461F1E700007F4000401004E4
:106B400000F0FF03FFFF070090FAA0F1B1FA81F116
:106B500001F1010101F01F0146EA816102D1C0F398
:106B6000846003E090FAA0F0B0FA80F000F1010038
:106B700000F01F003A4A00EB400002EB005041EAEF
:106B8000000141F00071AA68206800E001E005F012
:106B9000C4F834482B6803425DD020684FF0A04C05
:106BA000314A324E324D604501D0A84201D11146E2
:106BB00000E031468968DFF8BC8001F0E0714345B0
:106BC00003D0DFF8B48043451FD15FEA01281CD40D
:106BD000604505D0294B98423DD1A84200D03246AD
:106BE00041F40000916821F0E07101439160244874
:106BF00024490068B0FBF1F000EB4000800000E0A9
:106C0000401E00900028FBD125E0DFF87C80434542
:106C10000FD15FEAC1180CD4A84202D11B4B984295
:106C200019D0604502D0A84200D0324641F08070B1
:106C30000CE0DFF85C8043450DD14B020BD4A84239
:106C400009D0604500D0324641F48000916821F0BF
:106C5000E0710143916084F85870484687E5000070
:106C6000000020FE000008800003005000070050D4
:106C700000010050000021C31000C0900006005029
:106C800048000020400D0300000052C700050050DE
:106C9000000084CB0068A1F580710F390ED0B1F5EA
:106CA000837F08D0B1F5037F02D0D0F88000704711
:106CB000D0F88C007047D0F888007047D0F8840076
:106CC000704700002DE9F041044600684FF0A045F0
:106CD0003E4FA84201D0B84201D13D4900E03D49B4
:106CE000896801F01F0604F0F5FF08BB2168C86839
:106CF000C96C00F0004011F4C07F00D190B194F84D
:106D00005800012814D0012084F858002046FDF7CF
:106D1000D3FD01004FF000020CD084F85820084643
:106D2000BDE8F081E06D40F02000E0650120F7E76C
:106D30000220F5E7E06DC00504D5206E20F00800C4
:106D4000206600E02266E06D42F20103984340F4C1
:106D50008050E0652068204BDFF880C0B84201D148
:106D6000AE4604E0984201D1E64600E086468645FC
:106D700000D02EB9D4F85CE02EF4801EC4F85CE09C
:106D80004FF0600EC0F800E084F858202068B84248
:106D900004D0984201D1654600E00546854209D0FD
:106DA00046B1062E06D0072E04D0E06D40F48010C8
:106DB000E065B4E7C26812F0007FB0D18268084B8A
:106DC0001A4042F008028260A9E70000000100506A
:106DD0000003005000070050000500500004005060
:106DE000C0FFFF7F2DE9F041044600684FF0A04549
:106DF0004C4FA84201D0B84201D14B4900E04B4969
:106E0000896801F01F0604F065FF08BB2168C868A7
:106E1000C96C00F0004011F4C07F00D190B194F82B
:106E20005800012814D0012084F858002046FDF7AE
:106E300043FD01004FF000020CD084F858200846B2
:106E4000BDE8F081E06D40F02000E0650120F7E74B
:106E50000220F5E7E06DC00504D5206E20F00800A3
:106E6000206600E02266E06D42F20103984340F4A0
:106E70008050E06520682E4BDFF8B8C0B84201D1E1
:106E8000AE4604E0984201D1E64600E086468645DB
:106E900000D02EB9D4F85CE02EF4801EC4F85CE07B
:106EA0004FF0600EC0F800E084F858202068C268F7
:106EB000920203D5426842F480624260A0690828C9
:106EC0002068426807D022F0400242602068426891
:106ED00042F0200206E022F0200242602068426870
:106EE00042F0400242602068B84204D0984201D18A
:106EF000654600E00546854209D046B1062E06D01B
:106F0000072E04D0E06D40F48010E06597E7C2687A
:106F100012F0007F93D18268074B1A4042F00802BA
:106F200082608CE700010050000300500007005011
:106F30000005005000040050C0FFFF7F2DE9F04F16
:106F4000044690F858009BB00E464FF0000A012806
:106F500010D0012084F8580020684FF0A048474F17
:106F6000DFF81C91474D4FF0000B404506D12846F5
:106F7000009508E002201BB0BDE8F08FB8420AD1AE
:106F80004846CDF8009004F0ADFE0090206804F073
:106F9000A9FE40B109E0E16D41F02001E16584F80E
:106FA00058B00120E7E7009850B1E06D40F02000B4
:106FB000E0654FF0010A00BF84F858B05046DAE7A8
:106FC00020684146884201D0A84201D12E4800E005
:106FD0002E48D6F800C02E4B40F61F72BCF1000FB1
:106FE0002CD0D0F808C094F838802CF4604C4CEACF
:106FF000483CD6F804804CEA080CC0F808C0D4F825
:1070000000C08C4501D0AC4504D18968AB6801F063
:10701000010108E0B968D9F8085001F0010105F054
:1070200001059B68294303F001031943C4D1B368E8
:10703000316819438368934319431CE0866826F43A
:107040006046866026688E4201D0AE4204D18968CF
:10705000AB6801F0010108E0B968D9F8085001F007
:10706000010105F001059B68294303F00103194361
:10707000A2D18168914381609EE700000004005026
:1070800000050050000100500003005000070050B0
:10709000000600502DE9F84F00270446009790F8AD
:1070A0005800DFF818840D46B946012811D0012692
:1070B00084F85860206804F011FE60B1E06D40F083
:1070C0002000E0655FF0010784F858903846BDE87D
:1070D000F88F0220FBE7D5E900210C23206803EAA2
:1070E00091131844036B01F01F014FF01F0C0CFAB1
:1070F00001FCC2F3846223EA0C038A401343036356
:10710000206804F0EBFD8246206804F0DFFD5AEAB7
:1071100000003CD1AA6829682068B2F1004F37D03E
:1071200004F0ECFD2068416921F0004141612068D4
:107130006969C268C2F3C102520091402A69042AF7
:1071400031D000EB82002B68026EDFF874C303F0CD
:10715000F84302EA0C020B431A4342F00041016675
:1071600020682A69A96900EB8200026E22F0807211
:107170000A430266297F22682869012910D000216C
:1071800002EB8000026E22F000720A4302667DE08C
:10719000002204F0B3FD2068416941F00041C5E7D9
:1071A0004FF00071ECE7002104F084FD40032068FB
:1071B0004FF0000172D004F07DFD90FAA0F0B0FA1B
:1071C00080F1286842036ED090FAA0F0B0FA80F007
:1071D000814204D100221146206804F0ADFD012156
:1071E000206804F067FD400320684FF001015DD086
:1071F00004F060FD90FAA0F0B0FA80F12868420334
:1072000059D090FAA0F0B0FA80F0814204D1002267
:107210000121206804F090FD0221206804F04AFD5D
:10722000400320684FF0020148D004F043FD90FA7B
:10723000A0F0B0FA80F12868420344D090FAA0F0A0
:10724000B0FA80F0814204D100220221206804F0CB
:1072500073FD0321206804F02DFD400320684FF0EA
:10726000030133D004F026FD90FAA0F0B0FA80F1CB
:10727000286842032FD090FAA0F0B0FA80F0814243
:1072800004D100220321206804F056FD20688168A3
:1072900011F0010F22D0ACE000E004E004F00AFDA0
:1072A000C0F384618DE7C0F3846091E704F002FDD0
:1072B000C0F38461A2E7C0F38460A6E704F0FAFC9F
:1072C000C0F38461B7E7C0F38460BBE704F0F2FC6D
:1072D000C0F38461CCE7C0F38460D0E72A7B2968DF
:1072E00050F8B03FC1F3120C23EA0C0302F0180C63
:1072F000744A22FA0CF20A4013430360E9684145DC
:1073000077D1286841031CD090FAA0F1B1FA81F13D
:10731000491C01F01F0109294FEA403132D80029E8
:1073200012D000BF90FAA0F1B1FA81F101F1010190
:1073300001F01F0106FA01F609D100BFC0F3846114
:1073400009E0C0F38461E3E7C0F38461EEE790FAFB
:10735000A0F1B1FA81F101F1010101F01F0146EA4A
:10736000816102D1C0F3846003E090FAA0F0B0FA2A
:1073700080F000F1010000F01F0000EB400041EA46
:10738000005132E000290ED090FAA0F1B1FA81F15B
:1073900001F1010101F01F0106FA01F606D100BF5B
:1073A000C0F3846106E0C0F38461F1E790FAA0F1D4
:1073B000B1FA81F101F1010101F01F0146EA816199
:1073C00002D1C0F3846003E090FAA0F0B0FA80F03C
:1073D00000F1010000F01F003B4A00EB400002EB0F
:1073E000005041EA000141F00071AA68206804F0F1
:1073F00085FC36482B6803423FF466AE21684FF0A7
:10740000A04C3348334E344D614501D0A94201D1DF
:10741000024600E032469268DFF8C08002F0E07277
:10742000434503D0DFF8B880434520D15FEA022806
:107430001DD4614506D02B4B99427FF445AEA9423D
:1074400000D0304642F40001826822F0E0720A4324
:107450008260254825490068B0FBF1F000EB400050
:10746000800000E0401E00900028FBD12CE6DFF8F1
:10747000808043450FD15FEAC2180CD4A94202D1E3
:107480001C4B9942F2D0614502D0A94200D030464F
:1074900042F080710CE0DFF860804345E6D1530292
:1074A000E4D4A942E2D0614500D0304642F48001E4
:1074B000826822F0E0720A43826005E600007F40A5
:1074C00000F0FF03FFFF0700000020FE000008801F
:1074D000000300500007005000010050000021C3CD
:1074E0001000C0900006005048000020400D03002E
:1074F000000052C700050050000084CB7047704761
:1075000070470000F8B54FF0000504002E460095C6
:1075100002D0E06D10B107E00120F8BD204600F078
:107520000BF9266684F8586020688168C1F34071C1
:1075300019B18168744A1140816020688168C1F383
:10754000007179B98168714A114041F080518160C0
:107550006F4870490068B0FBF1F000E0401E0090F9
:107560000028FBD120688168C1F3007141B9E16D49
:1075700041F01001E165216E41F001012166012514
:1075800004F0ACFBE16DC90600D430B1E06D40F011
:107590001000E06501252846F8BDE06D20F48070FC
:1075A00040F00200E0652068816811F0010F27D1EA
:1075B0004FF0A043584A984201D0904204D19968B4
:1075C000966801F001010AE054498968544E01F0BF
:1075D0000101B66806F001063143524EB66806F066
:1075E000010631430CD1984201D0904201D14E485E
:1075F00000E04E486168826822F47C120A4382608F
:10760000E168E06B627F0843A16841EA42310843C8
:1076100094F8241040EA0140012904D1218D444A04
:1076200002EB41410843E16A29B101F47871226B10
:10763000014342EA01002268D1683E4B19400143F0
:10764000D16020680169626B21F0406111430161E2
:10765000206804F043FB0646206804F037FB06432D
:107660002ED1207F94F83810800340EA410221682F
:10767000C86844F2020398431043C8602069002898
:10768000206801690AD041F480310161206850F816
:10769000C01F22696FF30D01114307E021F480310F
:1076A0000161206850F8C01F6FF30D01016094F86C
:1076B000400001280CD02068016921F0010101611E
:1076C000606901282068016B21F00F0111D013E0DF
:1076D000D4E911010843D4E9131211430843216886
:1076E0000A6940F2FC739A43104340F001000861BC
:1076F000E6E7226A521E11430163E06D20F00200AA
:1077000040F00100E06546E7C0FFFF5FC0FFFF7F7C
:1077100048000020400D030000010050000400500C
:107720000005005000060050000300500007005004
:107730000000FEFF0740F0FF2DE9F04F87B006463E
:1077400014216846FCF7A2FD6D4AD6F800C000255A
:107750001368032180276B4C5B1C4FF090404FF463
:1077600000794FF4006A4FF0200BBCF1A04F07D016
:10777000DFF89481C4457AD11360012B3CD043E0FB
:107780001360012B07D1E26C42F40052E264E26C18
:1077900002F400520592E26C42F00102E264E26CF3
:1077A000884602F0010205920E22CDE900286946C2
:1077B000029500F029FFE06C40F00400E064E06C0A
:1077C000694600F0040005900D20CDE900080295FF
:1077D0004E4800F019FF4F4C4D4820600520C4E989
:1077E00001054FF40050C4E907B0204639E0746544
:1077F000A66207B0BDE8F08FE26C42F40052E2648A
:10780000E26C02F400520592E26C42F00102E26482
:10781000E26C884602F001020592F122CDE90028CF
:107820006946029500F0F0FEE06C40F00200E06472
:10783000E06C694600F0020005900120CDE90008E7
:107840000295354800F0E0FE3148324C1430603487
:1078500020602420C4E901054FF40050C4E907B0BA
:10786000204604F10C0282E8A0062DE0FFE72B4839
:10787000844530D15068401C5060012807D1E06C2D
:1078800040F48040E064E06C00F480400590E06CDF
:1078900040F00200E064E06C009100F0020005900E
:1078A000CDE9011569461C4800F0AEFE194C184898
:1078B000C034283020602520C4E9010504F10C0003
:1078C00080E8A00E2046256200F0B8F800288ED08F
:1078D000FEF70CFA8BE71248844502D01148844524
:1078E00087D15068401C5060012882D1E06C40F480
:1078F0008040E064E06C00F48040059079E700008F
:107900001400002000100240000100500008004850
:1079100008000240800A00200004004800040050D3
:1079200000050050000600502DE9F04704460068AD
:107930004FF0A048384F91468A46404501D0B842A2
:1079400001D1364900E03649896801F01F0504F08D
:10795000C5F900285DD194F85800012859D00120BC
:1079600084F85800002625B1052D02D0092D00D03D
:1079700003E02046FCF7A0FF18B184F85860BDE88A
:10798000F087E06D40F60161884340F48070E06567
:107990002068B84201D1414605E02249884201D120
:1079A000214900E00146814200D01DB9E06D20F47C
:1079B0008010E065E06DC00404D5206E20F0060064
:1079C000206600E02666616D1848C862616D18483F
:1079D0000863616D1748486321681C20086084F8BB
:1079E00058602068416841F0100141602068C1681A
:1079F00041F00101C16021684B4652464031606D43
:107A000000F07CF821688A680B4B1A40121D8A60CE
:107A1000B5E70220B3E7000000010050000300506A
:107A2000000700500005005000040050C547000842
:107A3000474800082D480008C0FFFF7F70B50400CC
:107A40000CD02B4A21681420914209D2294A0A44B9
:107A5000B2FBF0F08000606427480AE0012070BDAE
:107A6000234A52420A44B2FBF0F08000606420488E
:107A700008382064022084F825000A6847F6F07070
:107A80008243D4E902031843D4E904352B43184355
:107A9000A3691843E3691843236A18431043086035
:107AA0002046FDF7CBFEA0680025B0F5804F00D141
:107AB0006560A16C20790860D4E9130141606068B9
:107AC000401E032808D82046FDF7D8FE606D0560EB
:107AD000D4E91601416002E06565A565E565E563E9
:107AE000012084F8250084F82450002070BD000097
:107AF00008040240F8FFFDBF0000024070B50446D4
:107B000090F82400002501280CD0012084F82400DE
:107B100094F825600020012E06D084F82400022568
:107B2000284670BD022070BD022684F82560E063FF
:107B30002068066826F0010606602046FDF7B0FEC4
:107B4000206B00282068016802D041F00E0106E099
:107B500021F0040101602068016841F00A01016020
:107B6000A06C0168C90303D5016841F4807101600C
:107B7000606D18B1016841F480710160206801688E
:107B800041F001010160CBE770B5044600F032FE20
:107B90000546601C02D004484068044400F02AFEF8
:107BA000401BA042FAD370BD1C00002070B50446F3
:107BB00090F85C00022803D0206E40F0080007E037
:107BC0002068D0F8C4309B0205D5206E40F40070C8
:107BD0002066012070BDD0F8C400C0F301452B46DB
:107BE0002046FEF78BF821680120A840C1F8CC00A0
:107BF000A065002070BD704770470000F0B590F898
:107C00005C40022C03D0016E41F008014DE0046895
:107C100040293DD0D4F898502D0743D0D4F898404F
:107C2000C4F30126D0F84C4006EBC60504EBC504AE
:107C3000256815F080455560256839D025F06045E8
:107C400015602568284F05F00055956020CC05F09B
:107C50000045156134F8045BADB2D56154F8045C9D
:107C600005F47025D56054F8045C05F48015556161
:107C700054F8045C05F40015956154F8045CC5F3F0
:107C80000665156254F8045CED0F5562002518E096
:107C9000D4F890502D0705D0D4F89040C4F30126B5
:107CA000846CC1E7016E41F4807101660120F0BD72
:107CB000C5F38A45C4E700BF14F805C003F805C042
:107CC0006D1CD2F80CC007EB1C4C9CF800C0AC45F6
:107CD000F2D80068402903D0C0F89C600020F0BDB5
:107CE000C0F89460FAE7000070FB00080068D0F864
:107CF000C40000F00700704770472DE9F0470446C4
:107D00000068016D466D01F4E0510E40016D476D54
:107D100001F007010F40016D426D01F0380102EAE8
:107D20000108016D456D01F471010D40016D426D59
:107D300001F4602102EA0109016D490607D5416D90
:107D4000490604D5402101652046FFF7D5FF20688C
:107D5000016DC9050DD5416DC9050AD5D0F8D820EA
:107D6000D0F8E01011404FF480720265204600F018
:107D70003DFA2EB1206806653146204600F038FAFB
:107D80002FB1206807653946204600F0C1F9B8F1E7
:107D9000000005D0216808654146204600F0FCF946
:107DA0002068016D890508D5416D890505D54FF419
:107DB00000710165204600F01DFA2068016D09067A
:107DC0000CD5416D090609D5D0F8D420D0F8DC10C7
:107DD000114080220265204600F009FA2068016DFA
:107DE000890408D5416D890405D54FF4005101651A
:107DF000204600F0FAF92068016D090408D5416DAC
:107E0000090405D54FF400410165204600F0ECF966
:107E10002068016D490409D5416D490406D54FF428
:107E200080410165206E40F080002066B9F10000BD
:107E300005D02168086549462046FFF7DDFE25B1DB
:107E400020680565206E28432066206E002802D039
:107E50002046FFF7D0FEBDE8F08700002DE9F04195
:107E6000040006D0DFF8F48194F85C00002518B116
:107E700007E00120BDE8F08184F85D50204600F065
:107E8000F9F82068816921F01001816100F0B2FCED
:107E90000646032705E000BF00F0ACFC801B0A2863
:107EA00011D8206880690007F6D42068816941F004
:107EB0000101816100F09EFC06460BE000F09AFC97
:107EC000801B0A2806D9206E40F00100206684F845
:107ED0005C70CEE720688069C007EFD020688169B8
:107EE00041F0020181612168414502D15C4960682D
:107EF0000860207C01282068816937D041F040016A
:107F00008161607C01282068816932D021F4804140
:107F10008161A07C0128206881692DD041F48051C5
:107F2000816120688169A26821F4407111438161F7
:107F30002068816921F0A40181612068016921F034
:107F400010010161E068012819D010B302281BD08C
:107F50002068816941F0800181612068016941F0F8
:107F600010010161E06803280ED012E021F0400109
:107F7000C6E741F48041CBE721F48051D0E7206887
:107F8000816941F0040103E02068816941F020012A
:107F90008161207EE26940066FF0FF0101EB022261
:107FA000A0F100701043226AA38A521E10430A02F5
:107FB00002EB034318432368D861A068B0F5407F03
:107FC00010D1D4E90A0301EB0321401E0843216BC1
:107FD000131303EB01110843A18C02EB0141084389
:107FE0002168C860206850F8C01FE26B114301602F
:107FF0001D4A21681B48914200D11C481C4A9142ED
:1080000001D100F5D460206451F8802FA38E22F4B2
:10801000F81242EA03420A6000F1700161642168CB
:1080200051F8802F94F8383022F0706242EA0362EF
:108030000A6000F1B001A164D831E164D831216552
:1080400018316165D83100E020C08842FCD3A565B5
:108050002566012084F85C0000200BE700640040E6
:108060000065004000A400400068004050A70040A8
:10807000006C004010B586B0044614216846FCF739
:1080800005F92149206888423BD12048816D41F0A3
:1080900000718165816D01F000710591C16C41F045
:1080A0000101C164C06C002100F0010005904FF493
:1080B000C05000900220CDE90101039009200490F6
:1080C0006946C00600F0A0FA01220221152000F046
:1080D00041FC152000F031FC2068416D41F00101A8
:1080E00041652068C16D41F00101C1652068416DA5
:1080F00041F400714165206850F8DC1F41F0010136
:10810000016006B010BD0000006400400010024095
:1081100000B500681D4991B0884234D16B4606AA6B
:1081200040211B48FFF76AFD079800B101208DF838
:108130000C0006980290099802A9000C8DF80D0019
:108140009DF800008DF80E009DF801008DF80F00DD
:108150009DF802008DF810009DF803008DF81100C5
:108160009DF804008DF812009DF805008DF81300AD
:108170009DF806008DF814009DF807008DF8150095
:108180000448FCF78DFD11B000BD00000064004004
:10819000C80700207815002000B5006805498DB09B
:1081A000884205D10AAB6A4641210348FFF726FD04
:1081B0000DB000BD00640040C807002090F85C10BE
:1081C000012905D0016E41F00401016601207047CC
:1081D000022180F85C1001688A6922F001028A613C
:1081E0000021016608467047704770477047704726
:1081F0007047000010B590B000240D9427486946E0
:108200000E94FCF737FD052841D1009806940490A0
:108210009DF8040001283CD0CDF814409DF80500DD
:108220000DAA0004CDE907040B949DF806008DF813
:1082300034009DF807000C948DF835009DF8080077
:108240008DF836009DF809008DF8370009949DF8E7
:108250000A008DF838009DF80B008DF839009DF864
:108260000C008DF83A009DF80D008DF83B000A9443
:1082700004A90B48FFF79AFC012808D10848016EB1
:10828000890504D50068816921F00101816110B080
:1082900010BD4FF080400590C0E70000801900201D
:1082A000C80700202DE9F05F05463548894601786A
:1082B00001290CD00127804607704FF47A7B58467D
:1082C000FDF7F2FE06004FF0000A03D053E0022053
:1082D000BDE8F09F51464046C8F804A0294C2268EA
:1082E00092050ED5216821F40071216021684905AD
:1082F00005D5216821F480612160032109E0077719
:1083000008E02268520504D5216821F480612160CB
:10831000022101772868012807D04FF0FF31C9F802
:10832000001040F2FA3BAF681EE06868FDF748FDB8
:108330005846FDF7B9FE0646606948F204018843D5
:10834000606116E038466968FDF76AFE4FF47A709E
:10835000FDF7AAFE0600606920EA0B00606102D00A
:10836000C9F8007005E07F1CD5E902010844B84255
:10837000E8D8FDF7FBFC88F800A03046A8E700002D
:1083800028000020002002402DE9F05F05465548F6
:1083900000260178012912D00121017000218346B5
:1083A00041602878504CC0074FF47A7A2FD0D5E935
:1083B00001985046EF68FDF777FE18B126E00220DD
:1083C000BDE8F09FB9F1000F09D0B9F1010F0AD053
:1083D000B9F1020F0BD0B9F1040F0CD00EE048EA4E
:1083E0000740E0620AE048EA0740206306E048EA06
:1083F0000740E06402E048EA07402065606940F415
:10840000003060615046FDF74FFE00B1012628782C
:10841000800712D550462F69FDF746FE60B9206AE5
:1084200020F0FF0038432062606940F40030606152
:108430005046FDF739FE00B101262878400705D5E2
:10844000D5E90501FDF75EFD00B10126287800079A
:1084500008D5D5E90812914204D0E869FDF7CCFCB3
:1084600000B101262878800620D5D5E90B87504633
:10847000FDF71AFEC8B9B8F1010F03D0B8F1020F29
:1084800006D00AE0206F20F0FF003843206704E0A8
:10849000606F20F0FF0038436067606940F400308F
:1084A00060615046FDF700FE00B101262878C00645
:1084B00013D5AD6A57465046FDF7F6FD60B9206FFB
:1084C00020F4803028432067606940F40030606108
:1084D0003846FDF7E9FD00B1012600208BF80000C9
:1084E00030466DE7280000200020024005490120A9
:1084F0004A6942F000424A614969002900DA0020D5
:1085000070470000002002400448416941F00061CA
:1085100041614FF47A70FDF7C7BD000000200240B2
:10852000054901204A6942F080424A61496949008F
:1085300000D50020704700000020024006490020BE
:108540004A69520007D5054ACA60054ACA604969A6
:10855000490000D501207047002002403B2A19083D
:108560007F6E5D4C2DE9F0471B4D0446164628787A
:1085700098468A46012809D0012028704FF47A795C
:108580004846FDF791FD002718B119E00220BDE82B
:10859000F0876F6024B1012C09D0022C07D00CE0C9
:1085A000324643465046FDF75BFD01240CE0314660
:1085B0005046FDF763FD022C04D04846FDF774FDDC
:1085C0002F70E4E74FF480244846FDF76DFD034922
:1085D0004A69A2434A61F3E72800002000200240D4
:1085E000064900204A69002A07DA054A8A60054AD6
:1085F0008A604969002900DA0120704700200240A2
:1086000023016745AB89EFCD2DE9FC4FDFF8A0A131
:10861000002301250AF1040B03244FF00F0C0BF18A
:10862000040EBDE005FA03F632406FD04F68012F0B
:1086300005D0022F03D0112F01D0122F17D1D0F85F
:1086400008905F0004FA07F829EA08090097D1F8B2
:108650000C8008FA07F848EA0908C0F8088047685B
:10866000B7430E79C6F300169E403E434660C66887
:108670004FEA430804FA08F7BE4301978F6807FAE8
:1086800008F73743C7604E68022E01D0122E13D16F
:10869000DE0800EB86060096366A5F07FF0E0CFACE
:1086A00007F926EA0906D1F8109009FA07F949EA0C
:1086B0000609009EC6F820900668019FBE430F7908
:1086C00007F0030707FA08F7374307604E68F6001C
:1086D00065D5384E376E47F001073766366E23F0A2
:1086E000030706F001060096334E3E44B146B668D5
:1086F0009F074FEA17780CFA08F7BE43B0F1904F86
:1087000005D02E4FB84204D1012717E047E00027DB
:1087100014E02B4FB84201D102270FE0294FB84295
:1087200001D103270AE0284FB84201D1042705E010
:10873000264FB84201D1052700E0062707FA08F7BF
:108740003743C9F80870DAF800605746D1F804805A
:1087500096435FEAC83800D516433E60DBF80060F8
:108760005F46D1F8048096435FEA883800D5164307
:108770003E60DEF800607746D1F8048096435FEAF9
:10878000C82800D516433E60094F0C373E68D1F823
:10879000048096435FEA882800D516433E605B1C40
:1087A0000A6832FA03F67FF43DAFBDE8FC8F0000A3
:1087B0000004014000100240000001400004004895
:1087C00000080048000C0048001000480014004851
:1087D0000069084000D001207047426921EA020385
:1087E0000A4043EA0241816170470AB181617047E2
:1087F0008162704701488068704700001C000020BB
:1088000070B5040011D021684CF6CC400860216896
:1088100045F255500860D4E9000141602168A06824
:108820008860FFF7E7FF05460DE0012070BD00BF3F
:10883000FFF7E0FF401B302805D92068C0684007DB
:1088400001D0032070BD2068C0684007F0D12068C7
:108850000269E1688A4201D0016102E04AF6AA2178
:108860000160002070BD0000024881684268114428
:10887000816070471C000020094810B50168002481
:1088800041F480710160032000F084F8042000F0BE
:1088900009F808B1012401E000F026F8204610BDD7
:1088A0000020024070B50E4E05460024706898B155
:1088B0004FF47A71B1FBF0F00A490968B1FBF0F0AE
:1088C00000F089FF40B9102D06D200222946501E23
:1088D00000F040F8356000E00124204670BD000043
:1088E0001C000020480000200A4882B0016E41F0C0
:1088F00001010166016E01F001010091816D41F0FD
:1089000080518165806D00F08050009002B000F0D1
:10891000B1B800000010024000280DDB00F01F027B
:10892000012191404009800000F1E020C0F8801151
:10893000BFF34F8FBFF36F8F7047002809DB00F044
:108940001F02012191404009800000F1E020C0F8A1
:1089500000117047F0B40E4B1B680C46C3F30223A2
:10896000C3F10705042D00D90425191D072901D2DB
:10897000002300E0DB1E012606FA05F1491E214016
:1089800099409E40761E16403143F0BC06F078BEFA
:108990000CED00E0064900F0070208684FF6FF03FF
:1089A000184040EA0220034A104308607047000064
:1089B0000CED00E00000FA052B492C4B0A6832212F
:1089C0004A432B4940B1B0F5007F086829D020F414
:1089D000C06040F480602CE00868C0F341200228A9
:1089E00004D051F8800F20F4807022E0D1F880008C
:1089F00020F48070C1F88000086820F4C06040F462
:108A000000700860B2FBF3F0401C00E0401E4A69B1
:108A1000520501D50028F9D1486940050AD503203F
:108A20007047C0F34120022806D051F8800F40F46F
:108A30008070086000207047D1F8800040F480709A
:108A4000C1F88000086820F4C06040F4007008603D
:108A5000B2FBF3F0401C00E0401E4A695205DBD532
:108A60000028F9D1D8E700004800002040420F005C
:108A7000007000400248816841F480418160704785
:108A8000007000402DE9F843044600680026BB4D05
:108A900000035ED5A86D0027C00008D4A86D40F083
:108AA0008050A865A86D012700F080500090DFF885
:108AB000D092D9F8001041F48071C9F80010FFF786
:108AC00099FE804606E000BFFFF794FEA0EB080089
:108AD00002282BD8D9F80000C005F5D5D5F89000AC
:108AE00010F4407014D0216D814211D0D5F890005F
:108AF000D5F8901020F4407041F48031C5F8901002
:108B0000D5F8901021F48031C5F89010C5F8900088
:108B1000C00711D0FFF76EFE804641F2883907E0AA
:108B2000FFF768FEA0EB0801494501D903260BE0D9
:108B3000D5F890008007F3D5D5F89000216D20F48A
:108B400040700843C5F890001FB1A86D20F0805018
:108B5000A8652078C00707D0D5F88800616820F0A4
:108B600003000843C5F888002078800707D5D5F8AA
:108B70008800A16820F00C000843C5F88800207820
:108B8000400707D5D5F88800E16820F03000084399
:108B9000C5F888002078000707D5D5F88800216936
:108BA00020F0C0000843C5F888002078C00607D52B
:108BB000D5F88800616920F440700843C5F8880042
:108BC0002078800607D5D5F88800A16920F4406098
:108BD0000843C5F888002078400607D5D5F88800F6
:108BE000E16920F440500843C5F888002078000669
:108BF00007D5D5F88800216A20F440400843C5F81D
:108C000088002088C00507D5D5F88800616A20F45F
:108C100040300843C5F888002068800307D5D5F8A0
:108C20009C00A16A20F003000843C5F89C0020883E
:108C3000800507D5D5F88800E16A20F44020084374
:108C4000C5F88800208840050FD5D5F88800216B2D
:108C500020F440100843C5F88800206BB0F5801F51
:108C600003D1E86840F48010E860208800050FD543
:108C7000D5F88800616B20F440000843C5F88800EF
:108C8000606BB0F5800F03D1E86840F48010E860B5
:108C90002088C0040FD5D5F88800A16B20F0407063
:108CA0000843C5F88800A06BB0F1807F03D1E86865
:108CB00040F48010E86020884FF0006180040ED5F9
:108CC000D5F88800E26B20F040601043C5F88800BA
:108CD000E06B884203D1E86840F48010E8602088A7
:108CE00040040ED5D5F88800226C20F04060104377
:108CF000C5F88800206C884203D1E86840F48010F1
:108D0000E860208800040FD5D5F88800616C20F059
:108D100040500843C5F88800606CB0F1805F03D113
:108D2000E86840F48030E8602068C0030FD5D5F8CB
:108D30008800A16C20F040400843C5F88800A06C72
:108D4000B0F1804F03D1E86840F48030E8602068DB
:108D500040030FD5D5F89C00E16C20F44010084387
:108D6000C5F89C00E06CB0F5001F03D1E86840F442
:108D70008010E8603046BDE8F88300000010024033
:108D8000007000402DE9F0470E4605004FF0000747
:108D900025D0DFF8AC81D8F8000000F00F00B04219
:108DA0000CD2D8F8001021F00F013143C8F80010A0
:108DB000D8F8000000F00F00B04210D12968614CD3
:108DC000C80741F2883A5AD06868DFF87C910328D6
:108DD00008D0022820682DD0400500282CDB012077
:108DE000BDE8F08720688001F9D5E06800F0030253
:108DF000E068C0F30310401C032A19D0534A00BF97
:108E0000B2FBF0F0E268C2F306225043E268C2F31C
:108E10004162521C5200B0FBF2F0484517D9A068DD
:108E200010F0F00F0CD0880711D5A86840B10EE003
:108E3000474AE5E78003D0E700F0B6F8484506D991
:108E4000A06820F0F00040F08000A0608027A068BB
:108E5000696820F003000843A060FFF7CBFC81465F
:108E600006E000BFFFF7C6FCA0EB090151453AD868
:108E7000A068696800F00C00B0EB810FF2D128689F
:108E8000810714D5400703D5A06840F4E060A060D6
:108E90002878000705D5A06820F4605040F4E06011
:108EA000A060A068A96820F0F000084304E0802FCB
:108EB00003D1A06820F0F000A060D8F80010404670
:108EC00001F00F01B14216D9016821F00F013143C1
:108ED0000160FFF78FFC074607E000BFFFF78AFC41
:108EE000C11B514501D903207AE7D8F8000000F0F2
:108EF0000F00B042F2D12878400705D5A068E96894
:108F000020F4E0600843A0602878000706D5A06838
:108F1000296920F4605040EAC100A06000F044F8E4
:108F2000A1680C4AC1F30311515C01F01F01C84054
:108F30000949086009480068BDE8F047FFF7B2BC7E
:108F4000002002400010024000B4C4040024F400D9
:108F500000127A00A8FB0008480000201C00002036
:108F60000548064900688968054AC1F30221515C39
:108F700001F01F01C8407047480000200010024067
:108F8000B8FB00080548064900688968054AC1F32E
:108F9000C221515C01F01F01C84070474800002009
:108FA00000100240B8FB0008184910B58868C0F3EB
:108FB00081021748012A0BD08A684310C2F381024C
:108FC000022A06D08A68C2F38102032A03D0002055
:108FD00010BD184610BDCA6802F00304CA68C2F387
:108FE0000312521C032C02D0B0FBF2F001E0B3FBE1
:108FF000F2F0CA68C968C2F306225043C1F3416166
:10900000491C4900B0FBF1F010BD00000010024007
:109010000024F4002DE9F84304007AD02078FA4DBA
:10902000C00747D0A868E96800F00C0001F0030110
:109030000C2802D0082817D001E0032914D060685A
:10904000B0F5803F17D0B0F5A02F286817D020F4D6
:1090500080302860286820F4802028606068E0B1B3
:10906000FFF7C8FB064614E02868800322D5606835
:109070000028D2D01EE0286840F48030EDE740F4AC
:1090800080202860F7E700BFFFF7B4FB801B64284F
:1090900070D828688003F7D50CE0FFF7ABFB0646D5
:1090A00005E000BFFFF7A6FB801B6428F0D8286806
:1090B0008003F7D4207880074CD5A868E96800F0D1
:1090C0000C0001F003010C2802D004280DD001E0AF
:1090D00002290AD0E068002828682BD040F480706C
:1090E0002860FFF787FB064619E02868400502D58F
:1090F000E068002891D06868217C20F0FE4040EABA
:1091000001606860C1480068FFF7CCFB002800D10F
:1091100020E076E1FFF76EFB801B0228B8D82868B4
:109120004005F7D56868217C20F0FE4040EA0160E8
:1091300068600FE020F480702860FFF75BFB064654
:1091400005E000BFFFF756FB801B0228A0D8286867
:109150004005F7D42078000729D560690028D5F8A4
:10916000940013D040F00100C5F89400FFF742FBD3
:10917000064606E090E000BFFFF73CFB801B02289C
:1091800086D8D5F894008007F6D510E020F00100CD
:10919000C5F89400FFF72EFB064604E0FFF72AFB14
:1091A000801B022878D8D5F894008007F6D4207860
:1091B000400761D5A86D0026C00008D4A86D40F016
:1091C0008050A865A86D012600F08050009090485E
:1091D0000168C90511D40168804641F480710160BD
:1091E000FFF708FB074604E0FFF704FBC01B02285B
:1091F00052D8D8F80000C005F6D5A068012815D0CF
:109200000528D5F8900016D020F00100C5F8900090
:10921000D5F8900020F00400C5F89000A06841F255
:109220008838B8B1FFF7E6FA07460EE0D5F89000A7
:1092300040F00100F0E740F00400C5F89000F5E7C9
:10924000FFF7D8FAC11B414526D8D5F89000800712
:10925000F6D50CE0FFF7CEFA074604E0FFF7CAFAAE
:10926000C11B414518D8D5F890008007F6D41EB12F
:10927000A86D20F08050A8652078800629D5A069C7
:109280000028D5F8980013D040F00100C5F89800E8
:10929000FFF7B0FA064606E077E000BFFFF7AAFA4C
:1092A000801B022877D8D5F898008007F6D510E003
:1092B00020F00100C5F89800FFF79CFA064604E08C
:1092C000FFF798FA801B022865D8D5F89800800728
:1092D000F6D4E069F0B3A968C1F38101032961D034
:1092E0000228286820F0807028600BD0E86820F001
:1092F0000300E860E86847490840E860FFF77AFA49
:1093000004464BE0FFF776FA064604E0FFF772FAF0
:10931000801B02283FD828688001F7D4F4E90801AF
:109320006FF00F0202EB01110843218A5204490831
:1093300002EB4151A26841EA02210843217D4FF02E
:109340007E42490802EB41610843217B40EAC1604B
:10935000E96800E062E0304A11400843E8602868AC
:1093600040F080702860E86840F08070E860FFF7A7
:1093700041FA044605E000BFFFF73CFA001B022853
:1093800009D828688001F7D548E004E0FFF732FAF1
:10939000001B022802D90320BDE8F8832868800159
:1093A000F4D43BE00128F7D0E868226A00F003011A
:1093B000914226D1616A00F0F00209011039914210
:1093C0001FD1A26A00F4FE41B1EB022F19D194F82B
:1093D0002C2000F07841B1EBC26F12D1218E00F445
:1093E000C00249084905A1F50011914209D194F83C
:1093F000341000F0C06049084906A1F100718142B3
:109400000CD00120C8E70000001002401C00002022
:1094100000700040FFFFEEFE0C809F010020BBE7C4
:1094200070B5040009D0606A002540B1256165610E
:10943000A56294F85D0040B10CE0012070BD606849
:10944000B0F5827FF4D0E561F2E784F85C50204605
:1094500000F05CF8022084F85D002068016821F0CB
:1094600040010160E1684FF4E062914201D90020BF
:1094700001E04FF48050B1F5706F02D0914200D0FE
:10948000A562A188228901F4827102F40442114389
:10949000227C02F002021143227D02F001021143FC
:1094A000228B02F400721143227F02F03802114332
:1094B00094F8202002F080021143228D02F4005221
:1094C000114322681160A169042202EA114194F853
:1094D000242000F4805002F01002114394F834204C
:1094E00002F008021143A28902F4706211430143A1
:1094F000206841602068C16921F40061C16125666E
:10950000012084F85D00002070BD000010B586B019
:10951000044614216846FAF7B9FE134920688842C8
:109520001FD11248816D41F400418165816D01F4C4
:1095300000410591C16C41F00401C164C06C6946F1
:1095400000F0040005904FF4E050009002200190DC
:109550000020029001200390062004900448FFF7A9
:1095600053F806B010BD0000003C0040001002405F
:10957000000800482DE9F05F044690F85C000027E1
:109580000A9E1D4692468B464FF0010901280ED0D7
:10959000012084F85C00FFF72DF9804694F85D0007
:1095A000616801280CD0B1F5827F07D102E002206A
:1095B000BDE8F09FA16809B9042801D0022700E1A5
:1095C000BBF1000F24D0BAF1000F21D005B394F8FD
:1095D0005D00042802D0052084F85D00002020668C
:1095E000C4F840A0A4F84650A4F84450C4F838B0D9
:1095F000E587A587E0642065E0684FF4E061884274
:1096000001D8012D06D92068426822F4805205E075
:109610000127D6E02068426842F480524260206808
:109620000268520603D4026842F040020260E06819
:109630008842606845D908B1012D3AD1A06B2168F4
:109640000088C860A06B801CA063E08F401EE0878C
:109650002FE02068816889070FD5E18F69B1B9F1E2
:10966000010F0AD1A16B0988C160A06B801CA063A7
:10967000E08F401EE0874FF0000920688168C9072D
:109680000FD0B4F8461061B1C068216C0880206C1E
:10969000801C2064B4F84600401EA4F846004FF039
:1096A0000109FFF7A7F8A0EB0800B04201D3701C36
:1096B00075D1E08F0028CCD1B4F846000028C8D17D
:1096C00076E008B1012D6CD1E08F0128A06B08D99C
:1096D00021680088C860A06B801CA063E08F801E9A
:1096E00007E0216800780873A06B401CA063E08F3E
:1096F000401EE08755E02068816889071AD5E18F10
:10970000C1B1B9F1010F15D1E18F0129A16B07D9C1
:109710000988C160A06B801CA063E08F801E06E0FA
:1097200009780173A06B401CA063E08F401EE087A6
:109730004FF0000920688168C90728D0B4F84610A6
:1097400029B3B4F84610012914D9C068216C0880E7
:10975000206C801C2064B4F84600801EA4F84600EB
:10976000B4F84600012810D82068416841F48051BF
:1097700041600AE0007B216C0870206C401C206472
:10978000B4F84600401EA4F846004FF00109FFF768
:1097900031F8A0EB0800B04202D3701C01D018E0F1
:1097A000BEB1E08F0028A6D1B4F846000028A2D1AF
:1097B00042463146204603F0C7FF10B10127202062
:1097C0002066012084F85D00002084F85C003846A3
:1097D000EEE60327F5E710B5401EB0F1807F01D318
:1097E000012010BD4FF0E02460610F21601705F0EB
:1097F00047FF0020A06107202061002010BD7047B6
:1098000070477047F0B590F83C20012A58D00122EB
:1098100080F83C20CA688B6822F440721A434B6877
:1098200022F480621A430B6822F400621A430B6927
:1098300022F480521A434B6922F400521A430B6BF4
:1098400022F480421A430B8B22F4702242EA034234
:109850001C4C036800271C4D1C4EA34203D0AB4296
:1098600001D0B34205D1D1F81CC022F0805242EAA7
:109870000C02A34203D0AB4201D0B3421BD1B1F8DA
:1098800028C022F4700242EA0C52D1F820C022F023
:10989000807242EA0C02D1F824C022F0007242EA3F
:1098A0000C02A34203D0AB4201D0B34203D1C96A38
:1098B00022F000520A435A6480F83C700020F0BD48
:1098C0000220F0BD002C0140003401400050014056
:1098D00070470068416D41F40031416500207047D8
:1098E00070477047F0B590F83C20012A43D001251D
:1098F00080F83C50022280F83D2003685A689C683A
:109900001E4E1F4FDFF87CC0B34203D0BB4201D0D4
:10991000634504D122F4700E4A6842EA0E02DFF871
:1099200068E002EA0E02D1F800E04EEA020EC3F847
:1099300004E00268B24212D0B2F1804F0FD0134B54
:109940009A420CD0124B9A4209D0124B9A4206D03E
:10995000BA4204D0104B9A4201D0624504D18968C2
:1099600024F080031943916080F83D50002180F875
:109970003C100846F0BD0220F0BD0000002C014064
:1099800000340140005001408FFFFFFD0004004003
:1099900000080040000C00400040014010B50446A3
:1099A000022249B104290ED0082913D094F84700A7
:1099B000012816D0012010BD94F844000128F9D1E7
:1099C00084F844200FE094F845000128F2D184F88F
:1099D000452008E094F846000128EBD184F84620A1
:1099E00001E084F847200422206804F058FB206836
:1099F000416C41F40041416413492068884214D00D
:109A0000B0F1804F11D0114988420ED010498842E0
:109A10000BD01049884208D00F49884205D00F4921
:109A2000884202D00E49884207D181680D4A114010
:109A3000062906D0B1F5803F03D0016841F001014D
:109A40000160002010BD0000002C01400004004017
:109A500000080040000C004000340140004001407C
:109A60000050014007000100704710B5040003D00A
:109A700094F83D0010B107E0012010BD002084F8EB
:109A80003C00204600F022F8022084F83D00211D11
:109A9000206804F08DFA012084F8480084F83E0024
:109AA00084F83F0084F8400084F8410084F84200C4
:109AB00084F8430084F8440084F8450084F84600A4
:109AC00084F8470084F83D00002010BD08B5154A11
:109AD00001681548914219D1016E41F40061016697
